:1000000003C1000031C100002FC100002DC100005C
:100010002BC1000029C1000027C1000025C100003C
:1000200023C1000021C100001FC100001DC100004C
:100030001BC1000019C1000017C1000015C100005C
:1000400013C1000011C100000FC100000DC100006C
:100050000BC1000009C1000007C10000FDC4000081
:1000600003C1000001C10000FFC00000FDC000008E
:10007000FBC00000F9C00000F7C00000F5C00000A0
:10008000F3C00000F1C00000EFC00000EDC00000B0
:10009000EBC00000E9C00000E7C00000E5C00000C0
:1000A000E3C00000E1C00000DFC00000DDC00000D0
:1000B000DBC00000D9C00000D7C00000D5C00000E0
:1000C000D3C00000D1C00000CFC00000CDC00000F0
:1000D000CBC00000C9C00000C7C00000C5C0000000
:1000E000C3C0000000002100240027002A002D00CA
:1000F0003000330001010000040107010A01000083
:100100002200250028002B002E00310034000201BF
:100110000000050108010B0100002000230026005B
:1001200029002C002F00320000010000030106010D
:10013000090105050505070508080808020202026D
:100140000A0A080804040404010101010101010173
:100150000303030303030303040707070C0C0C0C3E
:100160000C0C0C0C02020202060606060606060627
:100170000B0B0B0B0B0B0B0B0102102020080810B4
:100180002040102040800201020108040201010207
:1001900004081020408080402010080402018004E0
:1001A000020180402010080402010804020101023B
:1001B0000408102040800102040810204080000044
:1001C0000A0B02090C0D0E080703040100000000D1
:1001D000000000000000000000000000000000001F
:1001E00000000000000000000000121110000000DC
:1001F00000000000000000000000000000000000FF
:100200000000000074080F0911241FBECFEFD1E2D7
:10021000DEBFCDBF00E00CBF22E0A6E3B2E001C02C
:100220001D92AB3DB207E1F712E0A0E0B2E0E6EDCF
:10023000F7E100E00BBF02C007900D92A633B107B3
:10024000D9F711E0C3E0D1E000E006C02197010931
:10025000802FFE010E94C109C230D10780E008074B
:10026000A9F744D40C94DA0BCBCE96E0899FD00149
:100270001124A05BBD4F90967C936E935F9791E0A5
:1002800091969C939197E091BD02F091BE0290915E
:10029000BC02992339F0309751F0811108C0809148
:1002A0006C021994309719F05C968C91FACF0895EE
:1002B000CF92DF92EF92FF920F931F9396E0899F68
:1002C000F0011124E05BFD4F11A2278D30A12130F8
:1002D000310549F178F02230310509F44FC023305F
:1002E000310509F450C01F910F91FF90EF90DF90FE
:1002F000CF9008956623B9F361E070E0B6DF2FB7C1
:10030000F89480914C0290914D02A0914E02B091D0
:100310004F022FBF8093A8029093A902A093AA0234
:10032000B093AB02E0CF9FB7F894C0904C02D0904E
:100330004D02E0904E02F0904F029FBF0091A80244
:100340001091A9022091AA023091AB02C01AD10AE1
:10035000E20AF30A0091BA021091BB0230E020E0F9
:100360000C151D052E053F0548F462E070E01F9155
:100370000F91FF90EF90DF90CF9077CF6111B3CFC7
:1003800063E070E0F4CF70E060E0F1CF0895AF92E9
:10039000BF92CF92DF92EF92FF920F931F93CF9372
:1003A000DF936C017B018B01040F151FEB015E01D4
:1003B000AE18BF08C017D10759F06991D601ED9169
:1003C000FC910190F081E02DC6011995892B79F7F8
:1003D000C501DF91CF911F910F91FF90EF90DF90BA
:1003E000CF90BF90AF9008958150823108F059C0EE
:1003F000E82FF0E08827E150FE4F8F4FC2C71F0261
:100400002302110217021B02510226022C023002A3
:1004100036023A023E024402480251024C025202A3
:100420005602809180008F7780938000089580919C
:1004300080008F7DF9CF80918000877FF5CF84B5D4
:100440008F7784BD089584B58F7DFBCF8091B000F8
:100450008F778093B00008958091B0008F7DF9CFA1
:10046000809190008F778093900008958091900004
:100470008F7DF9CF80919000877FF5CF8091A0008C
:100480008F778093A00008958091A0008F7DF9CF91
:100490008091A000877FF5CF809120018F77809396
:1004A00020010895809120018F7DF9CF8091200156
:1004B000877FF5CFCF93DF93282F30E0F901E25407
:1004C000FE4F8491F901E858FE4FD491F901EE5C9A
:1004D000FE4FC491CC2399F0811186DFEC2FF0E020
:1004E000EE0FFF1FE85EFE4FA591B491EC91ED2356
:1004F00081E090E009F480E0DF91CF91089580E001
:1005000090E0FACF862FD6CF1F93CF93DF93282F7B
:1005100030E0F901E254FE4F8491F901E858FE4FB2
:10052000D491F901EE5CFE4FC491CC23A1F0162FBB
:1005300081115ADFEC2FF0E0EE0FFF1FE250FF4F6A
:10054000A591B4918FB7F894EC91111108C0D09592
:10055000DE23DC938FBFDF91CF911F910895DE2BB7
:10056000F8CF862F642FD0CFCF93DF9390E0FC019C
:10057000E858FE4F24918E5C9E4FFC0184918823A5
:10058000C9F090E0880F991FFC01EC51FF4FA59135
:10059000B491FC01E250FF4FC591D49161110DC09F
:1005A0009FB7F8948C91209582238C93888128237F
:1005B00028839FBFDF91CF910895623051F49FB798
:1005C000F8943C91822F809583238C93E8812E2B85
:1005D000EFCF8FB7F894EC912E2B2C938FBFEACFEF
:1005E000862F642FC1CF90E080E008958F929F9274
:1005F000AF92BF920F931F93CF93DF93CDB7DEB728
:10060000A1970FB6F894DEBF0FBECDBF19A242303E
:1006100008F44AE08E010F5D1F4F842E912CB12CFF
:10062000A12CA50194016FD6E62FB901CA01EA30C9
:100630003CF5E05DD801EE938D01232B242B252B77
:1006400081F790E080E0109761F0FD0101900020BB
:10065000E9F73197AF014A1B5B0BBD018FEB92E0CD
:1006600096DEA1960FB6F894DEBF0FBECDBFDF9128
:10067000CF911F910F91BF90AF909F908F90089551
:10068000E95CD8CFCF93DF93EC0160E08E813CDF53
:1006900061E08E8139DF60E08E8136DF8BE891E0AA
:1006A0000197F1F7DF91CF910895CF92DF92EF920A
:1006B000FF920F931F93CF93DF936C017C0187E030
:1006C000E80EF11CD0E0C0E0062F10E0B8010C2EBF
:1006D00002C0759567950A94E2F76170F701819100
:1006E0007F0112DF2196C430D10581F7C601DF9169
:1006F000CF911F910F91FF90EF90DF90CF90C2CFDD
:10070000CF92DF92EF92FF920F931F93CF93DF93DD
:10071000EC01F62E642F8C81F7DE8D818F3F11F076
:1007200060E0F2DE0F2D10E08F8584FF23C06E01A4
:1007300087E0C80ED11CF12CE12CB8010E2C02C0B0
:10074000759567950A94E2F76170F60181916F01E2
:10075000DBDEFFEFEF1AFF0A88E0E816F10469F725
:10076000CE01DF91CF911F910F91FF90EF90DF901D
:10077000CF9088CFB80184E0759567958A95E1F7A9
:10078000CE0193DF6F2DCE01DF91CF911F910F919D
:10079000FF90EF90DF90CF9088CF40E0682F8FEBF5
:1007A00092E0AECF81E0F9DF8BE39FE10197F1F7B3
:1007B0000895CF93DF93823029F49091CE02986010
:1007C0009093CE028093D2021092D30280E4809361
:1007D000D40280E18093D50280E58093D60261E067
:1007E0008091C302C1DE8091C4028F3F11F061E0AD
:1007F000BBDE61E08091C502B7DECFEBD2E09E01A7
:100800002F5B32408091CE0284FD0AC084E090E0EC
:100810002196281739073CF461E08E81A5DEEFCFE1
:1008200088E090E0F5CF8BE39DE00197F1F760E081
:100830008091C30269DE60E08091C50265DE80912F
:10084000C4028F3F11F060E05FDE8091CE0284FD34
:100850002CC063E08FEB92E028DFCBE4D6E4CE013E
:100860000197F1F763E08FEB92E01FDF2197F1F73B
:1008700063E08FEB92E019DF83E592E00197F1F7F7
:1008800062E08FEB92E011DF8091CE02806285DF23
:1008900084E08093CF028CE080DF84DF82E080936D
:1008A000D00286E0DF91CF9178CF806276DF8BE453
:1008B00096E40197F1F78091CE0280626EDF83E5C6
:1008C00092E00197F1F78091CE02806266DFDCCF83
:1008D00041E016DF81E090E0089541E0682F8FEB62
:1008E00092E00EDF81E090E00895CF93DF93EC017A
:1008F00088819981009709F0E8D5198218821D82B4
:100900001C821B821A82DF91CF910895FC018081A5
:100910009181009709F0D9C50895FC0180819181EA
:10092000009709F082C460E070E0CB0108950F9356
:100930001F93CF93DF93EC0188819981009759F041
:100940002A813B812617370730F081E0DF91CF9174
:100950001F910F9108958B016F5F7F4F3FD60097D6
:1009600059F0998388831B830A832C813D81232B33
:1009700061F7FC011082E9CF80E0E8CFEF92FF92AF
:100980000F931F93CF93DF931F921F92CDB7DEB7C4
:100990008C0169831A82FC01E480F580FFEFEF1A75
:1009A000FF0AB701C4DF8823C1F0F801208131813B
:1009B00084819581BE016F5F7F4F820F931FF3D6B5
:1009C000F801F582E482C8010F900F90DF91CF917A
:1009D0001F910F91FF90EF900895C80186DFF3CF2C
:1009E000EF92FF920F931F93CF93DF93EC017B0164
:1009F0008A01BA019CDF81110AC0CE0176DFCE01E7
:100A0000DF91CF911F910F91FF90EF9008951D837B
:100A10000C83B70188819981C6D6F1CFFB01019083
:100A20000020E9F73197AF01461B570BD9CFCF9381
:100A3000DF93EC01FB018617970741F0608171811C
:100A40006115710539F044815581CADFCE01DF910E
:100A5000CF9108954ADFFACF1F920F920FB60F92EF
:100A600011242F933F938F939F93AF93BF938091C4
:100A70004C0290914D02A0914E02B0914F023091E4
:100A80003A0223E0230F2D3758F50196A11DB11D21
:100A900020933A0280934C0290934D02A0934E0211
:100AA000B0934F028091360290913702A0913802A4
:100AB000B09139020196A11DB11D80933602909329
:100AC0003702A0933802B0933902BF91AF919F9142
:100AD0008F913F912F910F900FBE0F901F901895FF
:100AE00026E8230F0296A11DB11DD2CFCF93DF932D
:100AF000CDB7DEB768970FB6F894DEBF0FBECDBF97
:100B0000789484B5826084BD84B5816084BD85B5E8
:100B1000826085BD85B5816085BD80916E008160F4
:100B200080936E001092810080918100826080939A
:100B3000810080918100816080938100809180009C
:100B40008160809380008091B10084608093B100C7
:100B50008091B00081608093B000809191008260AC
:100B600080939100809191008160809391008091A9
:100B700090008160809390008091A10082608093BA
:100B8000A1008091A10081608093A1008091A000CC
:100B900081608093A0008091210182608093210177
:100BA00080912101816080932101809120018160E9
:100BB0008093200180917A00846080937A008091F4
:100BC0007A00826080937A0080917A0081608093BD
:100BD0007A0080917A00806880937A001092C10038
:100BE00082E0E7DD212C312C2101239440E0642EAA
:100BF00040E0742E51E05093BC028FB7F8944091BE
:100C00004C0250914D0260914E0270914F028FBF85
:100C10008091AC029091AD02A091AE02B091AF0272
:100C2000481B590B6A0B7B0B8091B8029091B9025B
:100C3000B0E0A0E084179507A607B70708F02CC11D
:100C400010E08091B602181758F4E091B202F091CA
:100C5000B302E10FF11D62E0808186DC1F5FF1CFFE
:100C6000F12C8091B702F81608F05CC0CF2CD12C83
:100C7000E091B402F091B502EC0DFD1D61E08081C0
:100C800073DCE091B402F091B502EC0DFD1D60E063
:100C900080813ADCD201C1010F2C04C0880F991F5A
:100CA000AA1FBB1F0A94D2F74C015C01A094B09418
:100CB000E12C8091B602E81600F50E2D10E0E091CF
:100CC000B202F091B302E00FF11F8081F3DB0C5F01
:100CD0001F4F000F111FF801E05BFD4F892B41F4FE
:100CE000808191818829992991838083E394E1CF40
:100CF000808191818A219B21F7CFE091B402F0910C
:100D0000B502EC0DFD1D61E08081FEDB8091B40237
:100D10009091B502C80ED91E60E0F601808124DCF6
:100D2000F3949FCF00E512E0F801878D90A1892B05
:100D300031F4148E8FEF9FEF968F858F11A2369628
:100D400092E0EC38F90789F7D12C8091B602D816D9
:100D500008F052C0C12CED2CF12CEE0CFF1CF70159
:100D6000E85AFD4F7F012091B702C21608F042C039
:100D7000F701608171810C2C02C0769567950A9409
:100D8000E2F7D29E900111242C0D311DE0E5F2E036
:100D900080E0458D568D2417350709F4A3C18F5F78
:100DA00036968A30B1F760FF23C0E0E5F2E090E0CC
:100DB00080E0448D411117C0E091B002F091B10282
:100DC000E20FF31F408156E0589FF001599FF00D4C
:100DD0001124E05BFD4F448F368F258F10A2178EB4
:100DE00061E066DA05C0019636968A30910509F70A
:100DF000C394B9CFD394A9CF80E0F80191A1911108
:100E0000892F0A5F1F4FF2E00C381F07B1F79FB719
:100E1000F89440914C0250914D0260914E027091B5
:100E20004F029FBF4093AC025093AD026093AE025D
:100E30007093AF02882381F180917102882361F160
:100E400080916F0290917002019731F510916C02C0
:100E5000133431F180914A0290ED910F9A3008F0ED
:100E600064C01A8219821C821B821E821D8281111B
:100E700040C064E472E0CE010196D9DD612FCE015D
:100E800001967CDDBC0184E492E0D1DDCE010196C7
:100E90003DDD812F22DD42C01092BC0210E0DACF8E
:100EA00081DC10924B0210924A028091480290918C
:100EB0004902892B61F0E0914402F0914502808162
:100EC000882329F064E372E084E492E0A7DD64E320
:100ED00072E08EE392E0A2DD80913E0290913F02AB
:100EE000892B09F4B7CF64E372E08EE392E096DDDC
:100EF000B1CF6EE372E0CE01019699DD612FCE0194
:100F000001963CDDBC018EE392E091DDCE010196BD
:100F1000FDDC812FE2DC51E050934B02611471043F
:100F200009F468CE0E94000065CE811110C0112323
:100F300071F086ED810F823020F0812F8D7F8D3210
:100F400031F481E080934A0210933D02A2CF809158
:100F50004B02882319F31D3309F780913D028B3230
:100F600009F076C084E492E0D8DC6B018EE392E075
:100F7000D4DCC60ED71ED0923C02C0923B028DE359
:100F8000ACDC80913B0290913C021C8A1B8A1E8A39
:100F90001D8A188E1F8A4AE0BE016F5F7F4F6BD19A
:100FA000BE016F5F7F4FCE01439638DD80914402D2
:100FB00090914502009709F47EC06B897C89611588
:100FC000710509F477C040914602509147022F897C
:100FD000388D4217530708F46DC0E5D38F89988D7B
:100FE0009093490280934802188E1F8ACE0143963F
:100FF0008DDC64E372E08EE392E010DD10924B0230
:1010000010924A02CFDBE1E08091D2028111E0E050
:10101000E195F0E0E154FD4F84898068BEDBC0902B
:101020003B02D0903C020D2C000CEE08FF084AE079
:10103000C701B601F7FE0AC08DE24FDC66277727AD
:10104000CB016C197D098E099F094AE0CFDA66CF82
:101050008D3251F484E492E060DC6B018EE392E027
:101060005CDCC61AD70A87CF8A3299F484E492E00E
:1010700054DC6B018EE392E050DCC69E9001C79E6B
:10108000300DD69E300D112430933C0220933B024C
:1010900076CF8F3209F073CF84E492E03EDC6B01AF
:1010A0007C018EE392E039DC9B01AC01C701B60103
:1010B0004CD1EACF0AD28B899C89909345028093C8
:1010C00044028D899E8990934702809346028F89BE
:1010D000988D90934902809348021C8A1B8A1E8A2D
:1010E0001D8A82CF61707DCE1092C2021092C10221
:1010F0008CE292E09093C0028093BF028DE08093D7
:10110000C3028FEF8093C4028CE08093C5028BE012
:101110008093C6028AE08093C70289E08093C80268
:1011200088E08093C9021092CA021092CB021092FA
:10113000CC021092CD021092CE0281E03ADB1092E6
:10114000520210925602109255021092570282E2F9
:1011500092E09093510280935002ECE6F2E010820C
:10116000148213821582369682E0E83AF807B9F7BE
:1011700084E092E09093B3028093B20280E092E028
:101180009093B5028093B40284E08093B60280937A
:10119000B70288E092E09093B1028093B0028AE0B7
:1011A00090E09093B9028093B80284EF91E090931D
:1011B000BB028093BA021092BE021092BD0210923E
:1011C000AC021092AD021092AE021092AF021092D9
:1011D000BC021092450210924402109247021092F3
:1011E0004602109249021092480250E040E064E347
:1011F00072E084E492E0F4DB10923F0210923E022F
:101200001092410210924002109243021092420248
:1012100050E040E064E372E08EE392E0E1CB8EE3E5
:1012200092E074DB84E492E071CB1F93FC01992778
:101230008827BC01E89411911032E9F3193010F0BD
:101240001E30C8F31B3249F01D3241F4689405C0CA
:101250001CD0610F711D811D911D119110531A3009
:10126000B8F33EF490958095709561957F4F8F4FC0
:101270009F4F1F910895BB274A3031F4992322F4E0
:10128000BDE2909581959F4F16C0592F482F372F5B
:10129000262F660F771F881F991F660F771F881FDD
:1012A000991F620F731F841F951F660F771F881F7A
:1012B000991F0895BB27FB015527AA27880F991F5F
:1012C000AA1FA41710F0A41B83955051B9F7A05D75
:1012D000AA3308F0A95DA193009779F7B111B193F2
:1012E0001192CB0100C0DC01FC01672F71917723C3
:1012F000E1F7329704C07C916D9370836291AE17D1
:10130000BF07C8F30895A1E21A2EAA1BBB1BFD015B
:101310000DC0AA1FBB1FEE1FFF1FA217B307E407D4
:10132000F50720F0A21BB30BE40BF50B661F771F2C
:10133000881F991F1A9469F760957095809590950C
:101340009B01AC01BD01CF010895052E97FB16F45A
:1013500000940FD057FD05D0D6DF07FC02D046F42D
:1013600008C050954095309521953F4F4F4F5F4FA6
:10137000089590958095709561957F4F8F4F9F4F01
:101380000895EE0FFF1F881F8BBF0790F691E02D89
:1013900019940F931F93CF93DF938230910510F42C
:1013A00082E090E0E091D902F091DA0230E020E0B2
:1013B000B0E0A0E0309799F42115310509F44AC056
:1013C000281B390B24303105D8F58A819B816115A2
:1013D000710589F1FB0193838283FE0111C0408175
:1013E00051810281138148175907E0F048175907C6
:1013F00099F4109761F012960C93129713961C9320
:101400003296CF01DF91CF911F910F9108950093F4
:10141000D9021093DA02F4CF2115310551F04217A9
:10142000530738F0A901DB019A01BD01DF01F80182
:10143000C1CFEF01F9CF9093DA028093D902CDCFDB
:10144000FE01E20FF31F81939193225031093983FA
:101450002883D7CF2091D7023091D802232B41F493
:1014600020911A0230911B023093D8022093D702A8
:1014700020911802309119022115310541F42DB740
:101480003EB740911C0250911D02241B350BE09188
:10149000D702F091D802E217F307A0F42E1B3F0BFE
:1014A0002817390778F0AC014E5F5F4F24173507D6
:1014B00048F04E0F5F1F5093D8024093D70281939C
:1014C00091939FCFF0E0E0E09CCFCF93DF93009724
:1014D000E9F0FC01329713821282A091D902B091F7
:1014E000DA02ED0130E020E01097A1F42081318193
:1014F000820F931F2091D7023091D8022817390705
:1015000009F061C0F093D802E093D702DF91CF9148
:101510000895EA01CE17DF07E8F54A815B819E0155
:1015200041155105B1F7E901FB83EA8349915991CE
:10153000C40FD51FEC17FD0761F4808191810296DD
:10154000840F951FE90199838883828193819B830E
:101550008A83F0E0E0E012968D919C9113970097BA
:10156000B9F52D913C911197CD010296820F931FF1
:101570002091D7023091D8022817390739F63097D1
:1015800051F51092DA021092D902B093D802A093CA
:10159000D702BCCFD383C28340815181840F951F72
:1015A000C817D90761F44E5F5F4F88819981480F52
:1015B000591F518340838A819B81938382832115A4
:1015C000310509F0B0CFF093DA02E093D9029ECF53
:1015D000FD01DC01C0CF13821282D7CF4F925F9200
:1015E0006F927F928F929F92AF92BF92CF92DF9233
:1015F000EF92FF920F931F93CF93DF938C0100978D
:1016000091F4CB01DF91CF911F910F91FF90EF905B
:10161000DF90CF90BF90AF909F908F907F906F9012
:101620005F904F90B6CEFC01E60FF71F9C01225051
:101630003109E217F30708F4AAC0D901CD91DC9172
:101640001197C617D70718F1C530D10570F0CE0134
:1016500004978617970748F0C61BD70B2297C193AC
:10166000D1936D937C93CF0130DFC801DF91CF918F
:101670001F910F91FF90EF90DF90CF90BF90AF90B0
:101680009F908F907F906F905F904F9008955B0137
:10169000AC1ABD0A4C018C0E9D1EA091D902B091CE
:1016A000DA02512C412CF12CE12C109731F580916C
:1016B000D7029091D8028815990509F05CC04616AA
:1016C000570608F058C080911802909119020097AF
:1016D00041F48DB79EB740911C0250911D02841BAE
:1016E000950BE817F90708F052C0F093D802E09381
:1016F000D702F90171836083B8CF8D919C911197C6
:1017000012966C90129713967C901397A815B905B2
:1017100059F56C0142E0C40ED11CCA14DB0420F15F
:10172000AC014A195B09DA011296159780F06282C2
:10173000738251834083D9016D937C93E114F1044A
:1017400071F0D7011396FC93EE9312978ECF2296E9
:101750008C0F9D1FF90191838083F301EFCFF093EC
:10176000DA02E093D90281CF4816590608F42C0119
:101770007D01D3019ACFCB010CDE7C01009739F0BB
:10178000AE01B80107D0C801A0DE87016ECF10E01E
:1017900000E06BCFFB01DC0102C001900D924150D3
:1017A0005040D8F70895FB01DC0101900D92002014
:1017B000E1F7089511E0C3E0D1E000E005C0802F1B
:1017C000FE01DFDD2196011DC430D10780E008074E
:0617D000B1F7F894FFCF11
:1017D6001E1F2021161718193738392F3435362A87
:1017E6003132332D43303D2B0000DB0280000000F8
:1017F6000000F002B1028202000000006804C70186
:06180600F302C601000020
:00000001FF
