:10000000F5C0000021C100001FC100001DC100009B
:100010001BC1000019C1000017C1000015C100007C
:1000200013C1000011C100000FC100000DC100008C
:100030000BC1000009C1000007C1000005C100009C
:1000400003C10000CAC40000FFC00000FDC00000E2
:10005000FBC00000F9C00000F7C00000EDC30000C5
:10006000F3C00000B3C3000088C30000EDC000006F
:10007000EBC00000E9C00000E7C00000E5C00000E0
:100080007FC40000E1C00000DFC00000DDC0000050
:10009000DBC00000D9C00000D7C00000D5C0000000
:1000A000D3C00000D1C000003EC40000CDC000009D
:1000B000CBC00000C9C00000C7C0000007C40000DA
:1000C000C3C00000C1C00000BFC00000BDC0000030
:1000D000BBC00000B9C00000B7C00000B5C0000040
:1000E000B3C0000000000A0B02090C0D0E08070344
:1000F00004010000000000000000000000000000FB
:1001000000000000000000000000000000000000EF
:1001100012111000000000000000000000000000AC
:100120000000000000000000000000002200250088
:1001300028002B002E0031003400020100000501D0
:1001400008010B0100002100240027002A002D00D7
:100150003000330001010000040107010A01050518
:100160000505070508080808020202020A0A08082D
:10017000040404040101010101010101030303035B
:1001800003030303040707070C0C0C0C0C0C0C0CEA
:100190000202020206060606060606060B0B0B0BFB
:1001A0000B0B0B0B01021020200808102040102020
:1001B000408002010201080402010102040810202B
:1001C0004080804020100804020180040201804029
:1001D0002010080402010804020101020408102092
:1001E000408001020408102040801A0511241FBE1F
:1001F000CFEFD1E2DEBFCDBF00E00CBF12E0A0E048
:10020000B2E0E8E0F0E100E00BBF02C007900D9221
:10021000A631B107D9F723E0A6E1B2E001C01D92F3
:10022000A635B207E1F710E0C6EFD0E000E005C068
:1002300021970109802FFE01D7D6C53FD10780E065
:100240000807B1F754D4DEC6DBCEAF92BF92CF928F
:10025000DF92EF92FF920F931F93CF93DF936C0186
:100260007B018B01040F151FEB015E01AE18BF0867
:10027000C017D10759F06991D601ED91FC91019019
:10028000F081E02DC6011995892B79F7C501DF9121
:10029000CF911F910F91FF90EF90DF90CF90BF9083
:1002A000AF900895FC01538D448D252F30E0842FAD
:1002B00090E0821B930B541710F0CF96089501978E
:1002C0000895FC01918D828D981761F0A28DAE0F7B
:1002D000BF2FB11D5D968C91928D9F5F9F73928F02
:1002E00090E008958FEF9FEF0895FC01918D828D2E
:1002F000981731F0828DE80FF11D858D90E00895FB
:100300008FEF9FEF0895FC01918D228D892F90E052
:10031000805C9F4F821B91098F739927089585E216
:1003200092E0F1DF21E0892B09F420E0822F08958B
:10033000FC01A48DA80FB92FB11DA35ABF4F2C915A
:10034000848D90E001968F739927848FA689B78951
:100350002C93A089B1898C91837080648C93938D48
:10036000848D981306C00288F389E02D80818F7DEB
:1003700080830895EF92FF920F931F93CF93DF93A3
:10038000EC0181E0888F9B8D8C8D98131AC0E889D1
:10039000F989808185FF15C09FB7F894EE89FF89A0
:1003A0006083E889F98980818370806480839FBF3E
:1003B00081E090E0DF91CF911F910F91FF90EF903E
:1003C0000895F62E0B8D10E00F5F1F4F0F7311274E
:1003D000E02E8C8D8E110BC00FB607FCFACFE8898A
:1003E000F989808185FFF5CFCE01A2DFF2CFEB8DB9
:1003F000EC0FFD2FF11DE35AFF4FF0829FB7F894E9
:100400000B8FEA89FB8980818062D0CFCF93DF9305
:10041000EC01888D8823B1F0AA89BB89E889F98924
:100420008C9185FD03C0808186FD0CC00FB607FC52
:10043000F7CF8C9185FFF2CF808185FFEDCFCE0184
:1004400077DFEACFDF91CF91089580E090E0892BAC
:1004500021F065DF81110E94000080E090E0892B8F
:1004600049F080E090E0892B29F00E940000811182
:100470000E94000080E090E0892B49F080E090E04D
:10048000892B29F00E94000081110E94000080E069
:1004900090E0892B49F080E090E0892B29F00E94C0
:1004A000000081110C9400000895282F30E0F9011C
:1004B000EC51FF4F9491F901EC55FE4F4491225AB3
:1004C0003E4FF9012491222309F434C0992309F104
:1004D00091509231F0F4E92FF0E08827EE58FD4F6B
:1004E0008F4F82C5A302A70284029B029F0289024A
:1004F000AA02B002B402BA02BE02C202C802CC0210
:100500008902D002D602DA02809180008F77809330
:100510008000E22FF0E0EE0FFF1FE65DFE4FA59199
:10052000B4918FB7F894EC91611148C040954E2377
:100530004C938FBF0895809180008F7DE8CF80918C
:100540008000877FE4CF84B58F7784BDE2CF84B508
:100550008F7DFBCF8091B0008F778093B000D9CF93
:100560008091B0008F7DF9CF809190008F7780933C
:100570009000CFCF809190008F7DF9CF8091900037
:10058000877FF5CF8091A0008F778093A000C1CFA7
:100590008091A0008F7DF9CF8091A000877FF5CF5B
:1005A000809120018F7780932001B3CF809120012B
:1005B0008F7DF9CF80912001877FF5CF4E2BB8CF6B
:1005C0003FB7F89480911F0290912002A0912102E0
:1005D000B091220226B5A89B05C02F3F19F00196C5
:1005E000A11DB11D3FBFBA2FA92F982F8827BC018D
:1005F000CD01620F711D811D911D42E0660F771FB5
:10060000881F991F4A95D1F70895AF92BF92CF9254
:10061000DF92EF92FF920F931F93CF93DF936B01C3
:100620007A01EC01CA5EDD4F28813CE0389F8001F1
:10063000399F100D1124A0905203B12C27FF1FC029
:10064000FB011182108288818F5F888388819801E5
:10065000280F311D87FD3A95F6012A153B051CF43C
:1006600088818C30BCF180819181049680349C49D2
:1006700008F471C0F6018081918104966EC0888172
:100680009801280F311D87FD3A952A153B05DCF6A8
:100690008881A801480F511D87FD5A95FA01EE0F78
:1006A000FF1FE40FF51FEE53FD4F808186FFCBCF78
:1006B0008881F801E80FF11D87FDFA95CF01EE0F53
:1006C000FF1FE80FF91FEE53FD4F808160E08F732D
:1006D000ECDEB9CF808191812881A801420F511DA4
:1006E00027FD5A959A01FA01EE0FFF1FE20FF31F43
:1006F000EE53FD4F21813281820F931FF7019183C9
:10070000808388819801280F311D87FD3A95F90172
:10071000EE0FFF1FE20FF31FEE53FD4F808186FFA8
:1007200021C08881080F111D87FD1A95F801EE0F71
:10073000FF1FE00FF11FEE53FD4F808161E08F73CB
:10074000DF91CF911F910F91FF90EF90DF90CF90AD
:10075000BF90AF90AACE80E49CE9F701918380839B
:100760008FEF8883DF91CF911F910F91FF90EF90D2
:10077000DF90CF90BF90AF9008951F920F920FB669
:100780000F9211240BB60F922F933F934F935F93C9
:100790006F937F938F939F93AF93BF93EF93FF9349
:1007A00085E292E0C5DDFF91EF91BF91AF919F91FE
:1007B0008F917F916F915F914F913F912F910F900A
:1007C0000BBE0F900FBE0F901F9018951F920F92A7
:1007D0000FB60F9211240BB60F922F938F939F9306
:1007E000EF93FF93E0913502F09136028081E09122
:1007F0003B02F0913C0282FD1DC0908180913E023F
:100800008F5F8F7320913F02821741F0E0913E028B
:10081000F0E0EB5DFD4F958F80933E02FF91EF91ED
:100820009F918F912F910F900BBE0F900FBE0F9045
:100830001F9018958081F2CF1F920F920FB60F92E2
:1008400011242F933F938F939F93AF93BF938091E6
:100850001B0290911C02A0911D02B0911E023091CA
:100860001A0223E0230F2D3758F50196A11DB11D63
:1008700020931A0280931B0290931C02A0931D02E6
:10088000B0931E0280911F0290912002A09121023C
:10089000B09122020196A11DB11D80931F02909379
:1008A0002002A0932102B0932202BF91AF919F91A9
:1008B0008F913F912F910F900FBE0F901F90189521
:1008C00026E8230F0296A11DB11DD2CF1F920F92D1
:1008D0000FB60F9211240BB60F922F933F934F93A5
:1008E0005F936F937F938F939F93AF93BF93EF9398
:1008F000FF9348E251E064E271E090E080E085DE41
:10090000FF91EF91BF91AF919F918F917F916F91E7
:100910005F914F913F912F910F900BBE0F900FBEA3
:100920000F901F9018951F920F920FB60F921124DF
:100930000BB60F922F933F934F935F936F937F93D9
:100940008F939F93AF93BF93EF93FF9348EA50E049
:1009500064EA70E083E090E058DEFF91EF91BF9190
:10096000AF919F918F917F916F915F914F913F9147
:100970002F910F900BBE0F900FBE0F901F901895E8
:100980001F920F920FB60F9211240BB60F922F9356
:100990003F934F935F936F937F938F939F93AF9307
:1009A000BF93EF93FF9348E950E064E970E082E081
:1009B00090E02BDEFF91EF91BF91AF919F918F91CE
:1009C0007F916F915F914F913F912F910F900BBE4F
:1009D0000F900FBE0F901F9018951F920F920FB699
:1009E0000F9211240BB60F922F933F934F935F9367
:1009F0006F937F938F939F93AF93BF93EF93FF93E7
:100A000048E850E064E870E081E090E0FEDDFF91AE
:100A1000EF91BF91AF919F918F917F916F915F9176
:100A20004F913F912F910F900BBE0F900FBE0F90E3
:100A30001F901895109228021092270288EE93E0DA
:100A4000A0E0B0E08093290290932A02A0932B02A9
:100A5000B0932C0284E092E09093260280932502CA
:100A600085EC90E0909332028093310284EC90E028
:100A7000909334028093330280EC90E0909336029E
:100A80008093350281EC90E0909338028093370296
:100A900082EC90E090933A028093390286EC90E0E9
:100AA00090933C0280933B0210923E0210923F02D0
:100AB000109240021092410280915203803398F4C8
:100AC00091E0980F909352038093530390E0FC01C0
:100AD000EE0FFF1FE80FF91FEE53FD4F88EB9BE071
:100AE0009283818308958FEF809353030895CF936A
:100AF000DF93CDB7DEB7A1970FB6F894DEBF0FBE78
:100B0000CDBF789484B5826084BD84B5816084BD96
:100B100085B5826085BD85B5816085BD80916E009B
:100B2000816080936E0010928100809181008260CC
:100B30008093810080918100816080938100809109
:100B400080008160809380008091B10084608093F8
:100B5000B1008091B00081608093B00080919100DD
:100B600082608093910080919100816080939100D8
:100B7000809190008160809390008091A1008260BC
:100B80008093A1008091A10081608093A100809159
:100B9000A00081608093A0008091210182608093F9
:100BA00021018091210181608093210180912001A8
:100BB00081608093200180917A00846080937A0024
:100BC00080917A00826080937A0080917A008160BF
:100BD00080937A0080917A00806880937A001092E6
:100BE000C100E0913502F091360282E08083E0910D
:100BF0003102F09132021082E0913302F09134021E
:100C00008FEC808310923D02E0913902F0913A021C
:100C100086E08083E0913702F09138028081806124
:100C20008083E0913702F091380280818860808370
:100C3000E0913702F0913802808180688083E091F2
:100C40003702F091380280818F7D80838091530339
:100C5000803308F068C0EAEAF1E02491E4E6F1E0CC
:100C60008491882399F090E0880F991FFC01EC5B38
:100C7000FE4FA591B491FC01E65DFE4F85919491E4
:100C80008FB7F894EC91E22BEC938FBF80915303D4
:100C9000282F30E0F901EE0FFF1FE20FF31FEE5394
:100CA000FD4F9081907C9660908310925403109237
:100CB00055032CE0622F8CD1829FB001112430E0CB
:100CC00020E0AB01420F531FFA01EE0FFF1FE40FAC
:100CD000F51FEE53FD4F908196FD17C02F5F3F4FDC
:100CE0002C30310571F7813009F0E4C0109280009A
:100CF00082E0809381001092850010928400B19A66
:100D000080916F00826080936F00E09153038E2F7B
:100D100090E0FC01EE0FFF1FE80FF91FEE53FD4FAF
:100D2000808180648083E8E52E2EE2E03E2EFAE0AA
:100D30008F2E912CA12CB12C80917B00877F8093EA
:100D40007B0020E420937C0080917A008064809373
:100D50007A0080917A0086FDFCCF80917800A09186
:100D60007900BA2FA82F28EE33E046D12FEF33E0D9
:100D700040E050E0E0D089019A0108511C4F2F4F0C
:100D80003F4F1093240200932302E0915303E0337A
:100D900088F58091540368E870E0681B710987FD4D
:100DA0007395CB01880F991F880F991F0817190792
:100DB00084F080915503B101681B710987FD73951B
:100DC000CB01880F991F880F991F081719070CF47A
:100DD000C8010297880F991F4FB7F8942E2F30E063
:100DE000F901EE0FFF1FE20FF31FEE53FD4F928349
:100DF00081834FBFC0902302D09024020D2C000CA1
:100E0000EE08FF08F7FE82C06DE285E292E0B2DAFA
:100E100022273327A9012C193D094E095F0919A280
:100E20008E010F5D1F4FCA01B901A50194019FD02A
:100E3000605DF80162938F0121153105410551056F
:100E400091F70115110559F001900020E9F731974C
:100E5000AF01401B510BB80185E292E0F6D942E0A8
:100E600050E062E172E085E292E0EFD9A9DB2B016C
:100E70003C0182E3C82ED12CE12CF12CA1DB6419BA
:100E8000750986099709683E734081059105B0F39D
:100E9000F1E0CF1AD108E108F10828EE420E23E074
:100EA000521E611C711CC114D104E104F10431F71C
:100EB000CCDA42CF823061F410929000809391009E
:100EC000109295001092940088BB809371001DCF02
:100ED000833069F41092A00082E08093A100109208
:100EE000A5001092A40089BB809372000ECF8111DF
:100EF0000CCF1092200182E08093210110922501F5
:100F0000109224018ABB80937300FFCEA701960143
:100F100019A28E010F5D1F4FCA01B901A5019401ED
:100F200026D0605DF80162938F01211531054105DE
:100F3000510591F786CF052E97FB16F400940FD03C
:100F400057FD05D014D007FC02D046F408C05095D8
:100F50004095309521953F4F4F4F5F4F08959095A5
:100F60008095709561957F4F8F4F9F4F0895A1E2B7
:100F70001A2EAA1BBB1BFD010DC0AA1FBB1FEE1F13
:100F8000FF1FA217B307E407F50720F0A21BB30B5E
:100F9000E40BF50B661F771F881F991F1A9469F7DA
:100FA00060957095809590959B01AC01BD01CF0136
:100FB0000895A29FB001B39FC001A39F700D811D32
:100FC0001124911DB29F700D811D1124911D089552
:100FD000991B79E004C0991F961708F0961B881F8B
:100FE0007A95C9F780950895EE0FFF1F881F8BBF74
:100FF0000790F691E02D1994DCDFB7FF0895821B6E
:08100000930B0895F894FFCF53
:1010080000000000BA0125015201060283016101B6
:0610180075010D0A000045
:00000001FF
