:1000000003C1000031C100002FC100002DC100005C
:100010002BC1000029C1000027C1000025C100003C
:1000200023C1000021C100001FC100001DC100004C
:100030001BC1000019C1000017C1000015C100005C
:1000400013C1000052C600000FC100000DC1000026
:100050000BC1000009C1000007C1000075C5000008
:1000600003C100003BC5000010C50000FDC000003A
:10007000FBC00000F9C00000F7C00000F5C00000A0
:1000800007C60000F1C00000EFC00000EDC0000096
:10009000EBC00000E9C00000E7C00000E5C00000C0
:1000A000E3C00000E1C00000C6C50000DDC00000E4
:1000B000DBC00000D9C00000D7C000008FC5000021
:1000C000D3C00000D1C00000CFC00000CDC00000F0
:1000D000CBC00000C9C00000C7C00000C5C0000000
:1000E000C3C0000000002100240027002A002D00CA
:1000F0003000330001010000040107010A01000083
:100100002200250028002B002E00310034000201BF
:100110000000050108010B0100002000230026005B
:1001200029002C002F00320000010000030106010D
:10013000090105050505070508080808020202026D
:100140000A0A080804040404010101010101010173
:100150000303030303030303040707070C0C0C0C3E
:100160000C0C0C0C02020202060606060606060627
:100170000B0B0B0B0B0B0B0B0102102020080810B4
:100180002040102040800201020108040201010207
:1001900004081020408080402010080402018004E0
:1001A000020180402010080402010804020101023B
:1001B0000408102040800102040810204080000044
:1001C0000A0B02090C0D0E080703040100000000D1
:1001D000000000000000000000000000000000001F
:1001E00000000000000000000000121110000000DC
:1001F00000000000000000000000000000000000FF
:1002000000000000A206750A11241FBECFEFD1E244
:10021000DEBFCDBF00E00CBF12E0A0E0B2E0E2E83C
:10022000FAE100E00BBF02C007900D92A833B107BE
:10023000D9F723E0A8E3B2E001C01D92A13FB207C5
:10024000E1F711E0C3E0D1E000E006C02197010929
:10025000802FFE010E94110BC230D10780E00807F9
:10026000A9F726D60C94300DCBCEE0917B03E0337A
:1002700088F540917C0328E830E0241B310947FDD4
:100280003395220F331F220F331F8217930784F0F9
:1002900040917D0328E532E0241B310947FD339569
:1002A000220F331F220F331F821793070CF49C0178
:1002B00022503109220F331F4FB7F8948E2F90E050
:1002C000FC01EE0FFF1FE80FF91FEC51FD4F3283C9
:1002D00021834FBF089596E0899FD0011124A25831
:1002E000BC4F90967C936E935F9791E091969C9310
:1002F0009197E091EB03F091EC039091EA0399233D
:1003000039F0309751F0811108C080919A03199407
:10031000309719F05C968C91FACF0895CF92DF92C6
:10032000EF92FF920F931F9396E0899FF0011124A3
:10033000E258FC4F11A2278D30A12130310549F13F
:1003400078F02230310509F44FC02330310509F42B
:1003500050C01F910F91FF90EF90DF90CF900895C4
:100360006623B9F361E070E0B6DF2FB7F8948091AF
:10037000430290914402A0914502B09146022FBFE2
:100380008093D6039093D703A093D803B093D90357
:10039000E0CF9FB7F894C0904302D0904402E09021
:1003A0004502F09046029FBF0091D6031091D703FB
:1003B0002091D8033091D903C01AD10AE20AF30A76
:1003C0000091E8031091E90330E020E00C151D05D1
:1003D0002E053F0548F462E070E01F910F91FF90F9
:1003E000EF90DF90CF9077CF6111B3CF63E070E0F3
:1003F000F4CF70E060E0F1CFAF92BF92CF92DF9286
:10040000EF92FF920F931F93CF93DF936C017B01C9
:100410008B01040F151FEB015E01AE18BF08C0175A
:10042000D10759F06991D601ED91FC910190F081CD
:10043000E02DC6011995892B79F7C501DF91CF9180
:100440001F910F91FF90EF90DF90CF90BF90AF90F2
:100450000895FC01538D448D252F30E0842F90E0CA
:10046000821B930B541710F0CF96089501970895AF
:10047000FC01918D828D981761F0A28DAE0FBF2F78
:10048000B11D5D968C91928D9F5F9F73928F90E0CE
:1004900008958FEF9FEF0895FC01918D828D98173D
:1004A00031F0828DE80FF11D858D90E008958FEF7A
:1004B0009FEF0895FC01918D228D892F90E0805C43
:1004C0009F4F821B91098F739927089587E492E0CB
:1004D000F1DF21E0892B09F420E0822F0895FC014F
:1004E000A48DA80FB92FB11DA35ABF4F2C91848D95
:1004F00090E001968F739927848FA689B7892C93F2
:10050000A089B1898C91837080648C93938D848D44
:10051000981306C00288F389E02D80818F7D808347
:100520000895EF92FF920F931F93CF93DF93EC0107
:1005300081E0888F9B8D8C8D98131AC0E889F9898A
:10054000808185FF15C09FB7F894EE89FF8960838D
:10055000E889F98980818370806480839FBF81E00E
:1005600090E0DF91CF911F910F91FF90EF90089550
:10057000F62E0B8D10E00F5F1F4F0F731127E02E2B
:100580008C8D8E110BC00FB607FCFACFE889F98964
:10059000808185FFF5CFCE01A2DFF2CFEB8DEC0F8E
:1005A000FD2FF11DE35AFF4FF0829FB7F8940B8F98
:1005B000EA89FB8980818062D0CFCF93DF93EC0101
:1005C000888D8823B1F0AA89BB89E889F9898C9143
:1005D00085FD03C0808186FD0CC00FB607FCF7CFF8
:1005E0008C9185FFF2CF808185FFEDCFCE0177DF43
:1005F000EACFDF91CF91089580E090E0892B21F040
:1006000065DF81110E94000080E090E0892B49F0B5
:1006100080E090E0892B29F00E94000081110E9467
:10062000000080E090E0892B49F080E090E0892B89
:1006300029F00E94000081110E94000080E090E0FB
:10064000892B49F080E090E0892B29F00E9400007E
:1006500081110C94000008958150823108F059C036
:10066000E82FF0E08827E95CFC4F8F4FDAC757038B
:100670005B0349034F03530389035E036403680369
:100680006E03720376037C038003890384038A0369
:100690008E03809180008F778093800008958091F1
:1006A00080008F7DF9CF80918000877FF5CF84B562
:1006B0008F7784BD089584B58F7DFBCF8091B00086
:1006C0008F778093B00008958091B0008F7DF9CF2F
:1006D000809190008F778093900008958091900092
:1006E0008F7DF9CF80919000877FF5CF8091A0001A
:1006F0008F778093A00008958091A0008F7DF9CF1F
:100700008091A000877FF5CF809120018F77809323
:1007100020010895809120018F7DF9CF80912001E3
:10072000877FF5CFCF93DF93282F30E0F901E25494
:10073000FE4F8491F901E858FE4FD491F901EE5C27
:10074000FE4FC491CC2399F0811186DFEC2FF0E0AD
:10075000EE0FFF1FE85EFE4FA591B491EC91ED23E3
:1007600081E090E009F480E0DF91CF91089580E08E
:1007700090E0FACF862FD6CF1F93CF93DF93282F09
:1007800030E0F901E254FE4F8491F901E858FE4F40
:10079000D491F901EE5CFE4FC491CC23A1F0162F49
:1007A00081115ADFEC2FF0E0EE0FFF1FE250FF4FF8
:1007B000A591B4918FB7F894EC91111108C0D09520
:1007C000DE23DC938FBFDF91CF911F910895DE2B45
:1007D000F8CF862F642FD0CFCF93DF9390E0FC012A
:1007E000E858FE4F24918E5C9E4FFC018491882333
:1007F000C9F090E0880F991FFC01EC51FF4FA591C3
:10080000B491FC01E250FF4FC591D49161110DC02C
:100810009FB7F8948C91209582238C93888128230C
:1008200028839FBFDF91CF910895623051F49FB725
:10083000F8943C91822F809583238C93E8812E2B12
:10084000EFCF8FB7F894EC912E2B2C938FBFEACF7C
:10085000862F642FC1CFAF92BF92CF92DF92EF92DB
:10086000FF920F931F93CF93DF936B017A01EC01FB
:10087000C85CDD4F28813CE0389F8001399F100D16
:100880001124A0907403B12C27FF1FC0FB0111821B
:10089000108288818F5F888388819801280F311D9D
:1008A00087FD3A95F6012A153B051CF488818C30AA
:1008B000BCF180819181049680349C4908F471C018
:1008C000F6018081918104966EC088819801280F7D
:1008D000311D87FD3A952A153B05DCF68881A80174
:1008E000480F511D87FD5A95FA01EE0FFF1FE40FC7
:1008F000F51FEC51FD4F808186FFCBCF8881F80139
:10090000E80FF11D87FDFA95CF01EE0FFF1FE80FED
:10091000F91FEC51FD4F808160E08F732DDFB9CF5F
:10092000808191812881A801420F511D27FD5A9590
:100930009A01FA01EE0FFF1FE20FF31FEC51FD4F7A
:1009400021813281820F931FF701918380838881F7
:100950009801280F311D87FD3A95F901EE0FFF1F11
:10096000E20FF31FEC51FD4F808186FF21C088818B
:10097000080F111D87FD1A95F801EE0FFF1FE00FFC
:10098000F11FEC51FD4F808161E08F73DF91CF91BA
:100990001F910F91FF90EF90DF90CF90BF90AF909D
:1009A000EBCE80E49CE9F701918380838FEF88830D
:1009B000DF91CF911F910F91FF90EF90DF90CF903B
:1009C000BF90AF900895FC0101900020E9F73197A6
:1009D000AF01481B590BBC0187E492E00DCDCF93CA
:1009E000DF93EC018091750390917603009759F0A5
:1009F00020917703309178032C173D0720F081E098
:100A0000DF91CF910895BE016F5F7F4F3DD7009773
:100A100089F09093760380937503D0937803C09305
:100A200077032091790330917A03232B41F7FC015E
:100A30001082E5CF80E0E4CFCF93DF93EC01CFDFEE
:100A40002091750330917603811116C0211531056F
:100A500011F0C90190D6109276031092750310928E
:100A60007A0310927903109278031092770385E746
:100A700093E0DF91CF910895D0937A03C0937903E7
:100A800067E372E0C901E5D7F2CF1F920F920FB66C
:100A90000F9211240BB60F922F933F934F935F93B6
:100AA0006F937F938F939F93AF93BF93EF93FF9336
:100AB00087E492E014DDFF91EF91BF91AF919F9198
:100AC0008F917F916F915F914F913F912F910F90F7
:100AD0000BBE0F900FBE0F901F9018951F920F9294
:100AE0000FB60F9211240BB60F922F938F939F93F3
:100AF000EF93FF93E0915702F09158028081E091CB
:100B00005D02F0915E0282FD1DC0908180916002C5
:100B10008F5F8F7320916102821741F0E091600234
:100B2000F0E0E95BFD4F958F80936002FF91EF91BC
:100B30009F918F912F910F900BBE0F900FBE0F9032
:100B40001F9018958081F2CF1F920F920FB60F92CF
:100B500011242F933F938F939F93AF93BF938091D3
:100B6000430290914402A0914502B0914602309117
:100B7000400223E0230F2D3758F50196A11DB11D2A
:100B8000209340028093430290934402A093450235
:100B9000B093460280913C0290913D02A0913E02AA
:100BA000B0913F020196A11DB11D80933C0290932C
:100BB0003D02A0933E02B0933F02BF91AF919F913F
:100BC0008F913F912F910F900FBE0F901F9018950E
:100BD00026E8230F0296A11DB11DD2CF1F920F92BE
:100BE0000FB60F9211240BB60F922F933F934F9392
:100BF0005F936F937F938F939F93AF93BF93EF9385
:100C0000FF9348E251E064E271E090E080E023DE8F
:100C1000FF91EF91BF91AF919F918F917F916F91D4
:100C20005F914F913F912F910F900BBE0F900FBE90
:100C30000F901F9018951F920F920FB60F921124CC
:100C40000BB60F922F933F934F935F936F937F93C6
:100C50008F939F93AF93BF93EF93FF9348EA50E036
:100C600064EA70E083E090E0F6DDFF91EF91BF91E0
:100C7000AF919F918F917F916F915F914F913F9134
:100C80002F910F900BBE0F900FBE0F901F901895D5
:100C90001F920F920FB60F9211240BB60F922F9343
:100CA0003F934F935F936F937F938F939F93AF93F4
:100CB000BF93EF93FF9348E950E064E970E082E06E
:100CC00090E0C9DDFF91EF91BF91AF919F918F911E
:100CD0007F916F915F914F913F912F910F900BBE3C
:100CE0000F900FBE0F901F9018951F920F920FB686
:100CF0000F9211240BB60F922F933F934F935F9354
:100D00006F937F938F939F93AF93BF93EF93FF93D3
:100D100048E850E064E870E081E090E09CDDFF91FD
:100D2000EF91BF91AF919F918F917F916F915F9163
:100D30004F913F912F910F900BBE0F900FBE0F90D0
:100D40001F90189510924A021092490288EE93E083
:100D5000A0E0B0E080934B0290934C02A0934D0230
:100D6000B0934E028DE192E0909348028093470247
:100D700085EC90E0909354028093530284EC90E0D1
:100D8000909356028093550280EC90E09093580225
:100D90008093570281EC90E090935A02809359021D
:100DA00082EC90E090935C0280935B0286EC90E092
:100DB00090935E0280935D02109260021092610235
:100DC00010926202109263021092800310928403C8
:100DD00010928303109285038FE292E090937F0339
:100DE00080937E03EAE9F3E0108214821382158275
:100DF000369683E0E63DF807B9F783E092E09093FA
:100E0000E1038093E00380E092E09093E30380931A
:100E1000E20384E08093E40383E08093E50387E0CA
:100E200092E09093DF038093DE038AE090E090935A
:100E3000E7038093E60384EF91E09093E9038093C6
:100E4000E8031092EC031092EB031092DA03109275
:100E5000DB031092DC031092DD031092EA03809111
:100E60007403803308F591E0980F90937403809396
:100E70007B0390E0FC01EE0FFF1FE80FF91FEC5120
:100E8000FD4F88EB9BE09283818310927603109252
:100E90007503109278031092770310927A031092E0
:100EA000790390E080E0C8CD8FEF80937B03EDCF96
:100EB000CF93DF93CDB7DEB7A1970FB6F894DEBF1F
:100EC0000FBECDBF789484B5826084BD84B5816047
:100ED00084BD85B5826085BD85B5816085BD809105
:100EE0006E00816080936E0010928100809181007D
:100EF0008260809381008091810081608093810075
:100F0000809180008160809380008091B100846036
:100F10008093B1008091B00081608093B000809197
:100F20009100826080939100809191008160809314
:100F30009100809190008160809390008091A10049
:100F400082608093A1008091A10081608093A100C4
:100F50008091A00081608093A00080912101826037
:100F600080932101809121018160809321018091F2
:100F7000200181608093200180917A0084608093B9
:100F80007A0080917A00826080937A0080917A0062
:100F9000816080937A0080917A00806880937A00E3
:100FA0001092C100E0915702F091580282E08083D4
:100FB000E0915302F09154021082E0915502F091B9
:100FC00056028FEC808310925F02E0915B02F091F9
:100FD0005C0286E08083E0915902F0915A028081A0
:100FE00080618083E0915902F0915A02808188608B
:100FF0008083E0915902F0915A0280818068808359
:10100000E0915902F0915A0280818F7D8083809116
:101010007B03803308F050C061E086E0DDDB809127
:101020007B03282F30E0F901EE0FFF1FE20FF31FC3
:10103000EC51FD4F9081907C9660908310927C03E0
:1010400010927D032CE0622FE0D2829FB001112428
:1010500030E020E0AB01420F531FFA01EE0FFF1FFB
:10106000E40FF51FEC51FD4F908196FD17C02F5FE7
:101070003F4F2C30310571F7813009F05DC010927F
:10108000800082E08093810010928500109284009D
:10109000B19A80916F00826080936F00E0917B0332
:1010A0008E2F90E0FC01EE0FFF1FE80FF91FEC51AF
:1010B000FD4F8081806480838BED95E0D6D836E04B
:1010C000E32E4AE0442E512C612C712C81E0809358
:1010D000EA038FB7F8944091430250914402609123
:1010E0004502709146028FBF8091DA039091DB0335
:1010F000A091DC03B091DD03481B590B6A0B7B0BFD
:101100008091E6039091E703B0E0A0E08417950793
:10111000A607B70708F03FC110E08091E403181755
:10112000B8F5E091E003F091E103E10FF11D62E019
:10113000808152DB1F5FF1CF823061F4109290000A
:1011400080939100109295001092940088BB809338
:101150007100A4CF833069F41092A00082E08093E4
:10116000A1001092A5001092A40089BB8093720088
:1011700095CF811193CF1092200182E080932101BD
:1011800010922501109224018ABB8093730086CFB0
:10119000F12C8091E503F81608F05EC0CF2CD12C1D
:1011A000E091E203F091E303EC0DFD1D61E080812D
:1011B00013DBE091E203F091E303EC0DFD1D60E031
:1011C0008081DADA81E090E0A0E0B0E00F2C04C08A
:1011D000880F991FAA1FBB1F0A94D2F74C015C010C
:1011E000A094B094312C8091E403381600F5032DBF
:1011F00010E0E091E003F091E103E00FF11F808146
:1012000091DA0C5F1F4F000F111FF801E258FC4FDD
:10121000892B41F480819181882999299183808348
:101220003394E1CF808191818A219B21F7CFE09196
:10123000E203F091E303EC0DFD1D61E080819CDA97
:101240008091E2039091E303C80ED91E60E0F6019D
:101250008081C2DAF3949DCF9EE7C92E93E0D92E08
:101260008601F801878D90A1892B31F4148E8FEFC0
:101270009FEF968F858F11A20A5F1F4FEAEBF3E075
:10128000E017F10771F7F12C8091E403F81608F0EC
:1012900052C0B12C8F2C912C880C991CC4018A57F8
:1012A0009C4F4C012091E503B21608F042C0F401B6
:1012B000608171810B2C02C0769567950A94E2F7E4
:1012C000F29E900111242B0D311DEEE7F3E080E03A
:1012D000458D568D2417350709F405C18F5F369665
:1012E0008A30B1F760FF23C0EEE7F3E090E080E0E2
:1012F000448D411117C0E091DE03F091DF03E20F4E
:10130000F31F4081E89EF001E99EF00D1124E258A0
:10131000FC4F448F368F258F10A2178E61E00E94FC
:101320008E0105C0019636968A30910509F7B3946F
:10133000B9CFF394A9CF80E0F60191A19111892F43
:10134000F6E0CF0ED11CC016D106B1F79FB7F894C6
:1013500040914302509144026091450270914602CF
:101360009FBF4093DA035093DB036093DC037093D9
:10137000DD03882381F080919F03882361F08091B1
:101380009D0390919E03019731F410919A031111DE
:1013900005C032D99BCE1092EA03FBCF612F87E4C0
:1013A00092E0BFD8133251F490E080E045DB87E350
:1013B00092E009DB85E392E006DBEBCF1A3209F01D
:1013C00072C087E392E0FFDA85E392E0FCDA809175
:1013D000750390917603009709F44CC08ED07093FA
:1013E0004202609341024B01770FAA08BB08B7FE87
:1013F00045C06DE287E492E094D822273327A90103
:10140000281939094A095B0919A28E010F5D1F4F7E
:10141000CA01B901A3019201C7D0605DF8016293CE
:101420008F01211531054105510591F70115110570
:1014300011F0C801C8DA85E392E0C5DAA091410253
:10144000B091420220E436E0F4D024EB30E040E0FA
:1014500050E08ED0DA01C90184549D4FAF4FBF4F89
:1014600090934202809341020E94350190E080E017
:10147000E3DA8FCF60E070E0CB01B1CFA50194013A
:1014800019A28E010F5D1F4FCA01B901A30192017C
:101490008BD0605DF80162938F0121153105410504
:1014A000510591F7C3CF19831A82009179031091E6
:1014B0007A030F5F1F4FC80192DA882309F469CFBE
:1014C00020917503309176038091790390917A038E
:1014D000BE016F5F7F4F820F931FBBD210937A03C1
:1014E0000093790356CF61701ACF80917503909164
:1014F0007603009709F03FC108951F93FC019927D7
:101500008827BC01E89411911032E9F3193010F0EA
:101510001E30C8F31B3249F01D3241F4689405C0F7
:1015200012D0610F711D811D911D119110531A3040
:10153000B8F33EF490958095709561957F4F8F4FED
:101540009F4F1F910895592F482F372F262F660F31
:10155000771F881F991F660F771F881F991F620FBB
:10156000731F841F951F660F771F881F991F08958B
:10157000052E97FB16F400940FD057FD05D014D01C
:1015800007FC02D046F408C050954095309521954F
:101590003F4F4F4F5F4F089590958095709561959F
:1015A0007F4F8F4F9F4F0895A1E21A2EAA1BBB1B9E
:1015B000FD010DC0AA1FBB1FEE1FFF1FA217B3071F
:1015C000E407F50720F0A21BB30BE40BF50B661F35
:1015D000771F881F991F1A9469F7609570958095F9
:1015E00090959B01AC01BD01CF010895A29FB00170
:1015F000B39FC001A39F700D811D1124911DB29F47
:10160000700D811D1124911D0895991B79E004C06E
:10161000991F961708F0961B881F7A95C9F7809531
:101620000895EE0FFF1F881F8BBF0790F691E02DE6
:101630001994DCDFB7FF0895821B930B08950F9375
:101640001F93CF93DF938230910510F482E090E0F6
:10165000E091EF03F091F00330E020E0B0E0A0E093
:10166000309799F42115310509F44AC0281B390B2C
:1016700024303105D8F58A819B816115710589F186
:10168000FB0193838283FE0111C04081518102815D
:10169000138148175907E0F04817590799F4109734
:1016A00061F012960C93129713961C933296CF0109
:1016B000DF91CF911F910F9108950093EF03109345
:1016C000F003F4CF2115310551F04217530738F0DC
:1016D000A901DB019A01BD01DF01F801C1CFEF01D2
:1016E000F9CF9093F0038093EF03CDCFFE01E20F8B
:1016F000F31F819391932250310939832883D7CFE7
:101700002091ED033091EE03232B41F4209115023B
:10171000309116023093EE032093ED0320911302D3
:10172000309114022115310541F42DB73EB7409197
:10173000170250911802241B350BE091ED03F09134
:10174000EE03E217F307A0F42E1B3F0B281739070F
:1017500078F0AC014E5F5F4F2417350748F04E0F0D
:101760005F1F5093EE034093ED03819391939FCFBE
:10177000F0E0E0E09CCFCF93DF930097E9F0FC012D
:10178000329713821282A091EF03B091F003ED0122
:1017900030E020E01097A1F420813181820F931F67
:1017A0002091ED033091EE032817390709F061C04D
:1017B000F093EE03E093ED03DF91CF910895EA01FA
:1017C000CE17DF07E8F54A815B819E01411551057F
:1017D000B1F7E901FB83EA8349915991C40FD51F01
:1017E000EC17FD0761F4808191810296840F951FAB
:1017F000E90199838883828193819B838A83F0E0C6
:10180000E0E012968D919C9113970097B9F52D9178
:101810003C911197CD010296820F931F2091ED0309
:101820003091EE032817390739F6309751F51092A9
:10183000F0031092EF03B093EE03A093ED03BCCF3F
:10184000D383C28340815181840F951FC817D90764
:1018500061F44E5F5F4F88819981480F591F518312
:1018600040838A819B81938382832115310509F00E
:10187000B0CFF093F003E093EF039ECFFD01DC01C6
:10188000C0CF13821282D7CF4F925F926F927F9216
:101890008F929F92AF92BF92CF92DF92EF92FF9280
:1018A0000F931F93CF93DF938C01009791F4CB019B
:1018B000DF91CF911F910F91FF90EF90DF90CF902C
:1018C000BF90AF909F908F907F906F905F904F9060
:1018D000B6CEFC01E60FF71F9C0122503109E2173A
:1018E000F30708F4AAC0D901CD91DC911197C6176E
:1018F000D70718F1C530D10570F0CE0104978617CF
:10190000970748F0C61BD70B2297C193D1936D93CD
:101910007C93CF0130DFC801DF91CF911F910F91F0
:10192000FF90EF90DF90CF90BF90AF909F908F90FF
:101930007F906F905F904F9008955B01AC1ABD0A45
:101940004C018C0E9D1EA091EF03B091F003512C21
:10195000412CF12CE12C109731F58091ED03909101
:10196000EE038815990509F05CC04616570608F085
:1019700058C08091130290911402009741F48DB7E2
:101980009EB74091170250911802841B950BE817DF
:10199000F90708F052C0F093EE03E093ED03F9016C
:1019A00071836083B8CF8D919C91119712966C9042
:1019B000129713967C901397A815B90559F56C01E9
:1019C00042E0C40ED11CCA14DB0420F1AC014A1958
:1019D0005B09DA011296159780F062827382518357
:1019E0004083D9016D937C93E114F10471F0D70128
:1019F0001396FC93EE9312978ECF22968C0F9D1F19
:101A0000F90191838083F301EFCFF093F003E0932A
:101A1000EF0381CF4816590608F42C017D01D3014C
:101A20009ACFCB010CDE7C01009739F0AE01B801F2
:101A300007D0C801A0DE87016ECF10E000E06BCFB9
:101A4000FB01DC0102C001900D9241505040D8F7DB
:101A50000895FB01DC0101900D920020E1F708954B
:101A600011E0C3E0D1E000E005C0802FFE01D9DD28
:101A70002196011DC430D10780E00807B1F7F89422
:021A8000FFCF96
:101A820024252616181A1C313233343536373839A4
:101A92002A30230000F1038000000000009102FCC4
:101AA200012902DD025A0238024C0200000000281D
:081AB20004E903BA030D0A0068
:00000001FF
