:1000000003C1000030C100002EC100002CC100005F
:100010002AC1000028C1000026C1000024C1000040
:1000200022C1000020C100001EC100001CC1000050
:100030001AC1000018C1000016C1000014C1000060
:1000400012C1000010C100000EC100000CC1000070
:100050000AC1000008C1000006C100003EC4000043
:1000600002C1000000C10000FEC00000FCC0000092
:10007000FAC00000F8C00000F6C00000F4C00000A4
:10008000F2C00000F0C00000EEC00000ECC00000B4
:10009000EAC00000E8C00000E6C00000E4C00000C4
:1000A000E2C00000E0C00000DEC00000DCC00000D4
:1000B000DAC00000D8C00000D6C00000D4C00000E4
:1000C000D2C00000D0C00000CEC00000CCC00000F4
:1000D000CAC00000C8C00000C6C00000C4C0000004
:1000E000C2C0000000002100240027002A002D00CB
:1000F0003000330001010000040107010A01000083
:100100002200250028002B002E00310034000201BF
:100110000000050108010B0100002000230026005B
:1001200029002C002F00320000010000030106010D
:10013000090105050505070508080808020202026D
:100140000A0A080804040404010101010101010173
:100150000303030303030303040707070C0C0C0C3E
:100160000C0C0C0C02020202060606060606060627
:100170000B0B0B0B0B0B0B0B0102102020080810B4
:100180002040102040800201020108040201010207
:1001900004081020408080402010080402018004E0
:1001A000020180402010080402010804020101023B
:1001B0000408102040800102040810204080000044
:1001C0000A0B02090C0D0E080703040100000000D1
:1001D000000000000000000000000000000000001F
:1001E00000000000000000000000121110000000DC
:1001F00000000000000000000000000000000000FF
:100200000000000001079D0711241FBECFEFD1E2BF
:10021000DEBFCDBF00E00CBF22E0AEE3B2E001C024
:100220001D92AE3DB207E1F712E0A0E0B2E0EEEBC6
:10023000F3E100E00BBF02C007900D92AE33B107AF
:10024000D9F711E0C3E0D1E000E005C02197010932
:10025000802FFE0181D6C230D10780E00807B1F7B8
:1002600086D30C94CE09CCCE96E0899FD001112480
:10027000AD5ABD4F90967C936E935F9791E09196A7
:100280009C939197E091C002F091C1029091BF02BE
:10029000992339F0309751F0811108C080916F0295
:1002A0001994309719F05C968C91FACF0895CF92FB
:1002B000DF92EF92FF920F931F9396E0899FF001D8
:1002C0001124ED5AFD4F11A2278D30A121303105A7
:1002D00049F178F02230310509F44FC0233031055F
:1002E00009F450C01F910F91FF90EF90DF90CF90D5
:1002F00008956623B9F361E070E0B6DF2FB7F89494
:1003000080914F0290915002A0915102B0915202FF
:100310002FBF8093AB029093AC02A093AD02B09339
:10032000AE02E0CF9FB7F894C0904F02D090500239
:10033000E0905102F09052029FBF0091AB021091E9
:10034000AC022091AD023091AE02C01AD10AE20A8D
:10035000F30A0091BD021091BE0230E020E00C15BE
:100360001D052E053F0548F462E070E01F910F91D6
:10037000FF90EF90DF90CF9077CF6111B3CF63E024
:1003800070E0F4CF70E060E0F1CFAF92BF92CF9217
:10039000DF92EF92FF920F931F93CF93DF936C0145
:1003A0007B018B01040F151FEB015E01AE18BF0826
:1003B000C017D10759F06991D601ED91FC910190D8
:1003C000F081E02DC6011995892B79F7C501DF91E0
:1003D000CF911F910F91FF90EF90DF90CF90BF9042
:1003E000AF9008958150823108F059C0E82FF0E0B5
:1003F0008827E350FE4F8F4FAFC51D0221020F0229
:10040000150219024F0224022A022E023402380277
:100410003C02420246024F024A02500254028091BC
:1004200080008F77809380000895809180008F7D79
:10043000F9CF80918000877FF5CF84B58F7784BD19
:10044000089584B58F7DFBCF8091B0008F77809326
:10045000B00008958091B0008F7DF9CF8091900019
:100460008F77809390000895809190008F7DF9CFD1
:1004700080919000877FF5CF8091A0008F77809347
:10048000A00008958091A0008F7DF9CF8091A000F9
:10049000877FF5CF809120018F7780932001089589
:1004A000809120018F7DF9CF80912001877FF5CF4A
:1004B000CF93DF93282F30E0F901E254FE4F84916F
:1004C000F901E858FE4FD491F901EE5CFE4FC4915A
:1004D000CC2399F0811186DFEC2FF0E0EE0FFF1FA7
:1004E000E85EFE4FA591B491EC91ED2381E090E0A0
:1004F00009F480E0DF91CF91089580E090E0FACF99
:10050000862FD6CF1F93CF93DF93282F30E0F901AA
:10051000E254FE4F8491F901E858FE4FD491F9015D
:10052000EE5CFE4FC491CC23A1F0162F81115ADF4F
:10053000EC2FF0E0EE0FFF1FE250FF4FA591B491BA
:100540008FB7F894EC91111108C0D095DE23DC939D
:100550008FBFDF91CF911F910895DE2BF8CF862FAB
:10056000642FD0CFCF93DF9390E0FC01E858FE4F8B
:1005700024918E5C9E4FFC0184918823C9F090E009
:10058000880F991FFC01EC51FF4FA591B491FC011C
:10059000E250FF4FC591D49161110DC09FB7F894FF
:1005A0008C91209582238C938881282328839FBF58
:1005B000DF91CF910895623051F49FB7F8943C9148
:1005C000822F809583238C93E8812E2BEFCF8FB7DA
:1005D000F894EC912E2B2C938FBFEACF862F642FAB
:1005E000C1CF089590E080E00895CF93DF93EC01B0
:1005F00060E08E8187DF61E08E8184DF60E08E8144
:1006000081DF8BE891E00197F1F7DF91CF910895B9
:10061000CF92DF92EF92FF920F931F93CF93DF93CE
:100620006C017C0187E0E80EF11CD0E0C0E0062FF1
:1006300010E0B8010C2E02C0759567950A94E2F798
:100640006170F70181917F015DDF2196C430D10592
:1006500081F7C601DF91CF911F910F91FF90EF902D
:10066000DF90CF90C2CFCF92DF92EF92FF920F93A5
:100670001F93CF93DF93EC01F62E642F8C8142DF22
:100680008D818F3F11F060E03DDF0F2D10E08F85F1
:1006900084FF23C06E0187E0C80ED11CF12CE12C31
:1006A000B8010E2C02C0759567950A94E2F7617047
:1006B000F60181916F0126DFFFEFEF1AFF0A88E054
:1006C000E816F10469F7CE01DF91CF911F910F91E8
:1006D000FF90EF90DF90CF9088CFB80184E07595C0
:1006E00067958A95E1F7CE0193DF6F2DCE01DF91FB
:1006F000CF911F910F91FF90EF90DF90CF9088CF17
:1007000040E0682F82EC92E0AECFCF93DF9382304F
:1007100029F49091D10298609093D1028093D502F0
:100720001092D60280E48093D70280E18093D802B1
:1007300080E58093D90261E08091C60213DF809149
:10074000C7028F3F11F061E00DDF61E08091C802C8
:1007500009DFC2ECD2E09E01225C32408091D102DE
:1007600084FD0AC084E090E02196281739073CF404
:1007700061E08E81F7DEEFCF88E090E0F5CF8BE38C
:100780009DE00197F1F760E08091C602BBDE60E07A
:100790008091C802B7DE8091C7028F3F11F060E000
:1007A000B1DE8091D10284FD31C063E082EC92E041
:1007B0002FDFCBE4D6E4CE010197F1F763E082ECC2
:1007C00092E026DF2197F1F763E082EC92E020DFF0
:1007D00083E592E00197F1F762E082EC92E018DFA6
:1007E0008091D10280628CDF84E08093D2028CE021
:1007F00087DF81E085DF8BE39FE10197F1F782E0FE
:100800008093D30286E0DF91CF917ACF806278DF48
:100810008BE496E40197F1F78091D102806270DF5A
:1008200083E592E00197F1F78091D102806268DF61
:10083000D7CF41E018DF81E090E008950F931F9338
:10084000CF93DF93EC0188819981009759F02A8139
:100850003B812617370730F081E0DF91CF911F9160
:100860000F9108958B016F5F7F4FA3D4009759F0CC
:10087000998388831B830A832C813D81232B61F715
:10088000FC011082E9CF80E0E8CFEF92FF920F9356
:100890001F93CF93DF93EC017B018A01BA01CEDF76
:1008A00028813981811113C02115310511F0C90149
:1008B000F7D3198218821D821C821B821A82CE01F4
:1008C000DF91CF911F910F91FF90EF9008951D83BD
:1008D0000C83B701C9015BD5F2CF1F920F920FB6FF
:1008E0000F9211242F933F938F939F93AF93BF93B6
:1008F00080914F0290915002A0915102B09152020A
:100900003091420223E0230F2D3758F50196A11DA7
:10091000B11D2093420280934F0290935002A09306
:100920005102B093520280913E0290913F02A091F9
:100930004002B09141020196A11DB11D80933E027B
:1009400090933F02A0934002B0934102BF91AF91B8
:100950009F918F913F912F910F900FBE0F901F90FD
:10096000189526E8230F0296A11DB11DD2CFCF9373
:10097000DF931F921F92CDB7DEB7789484B5826063
:1009800084BD84B5816084BD85B5826085BD85B533
:10099000816085BD80916E00816080936E001092B1
:1009A000810080918100826080938100809181002C
:1009B00081608093810080918000816080938000BD
:1009C0008091B10084608093B1008091B00081601B
:1009D0008093B0008091910082608093910080911B
:1009E000910081608093910080919000816080935C
:1009F00090008091A10082608093A1008091A1006D
:100A000081608093A1008091A00081608093A0000C
:100A10008091210182608093210180912101816078
:100A20008093210180912001816080932001809139
:100A30007A00846080937A0080917A00826080934B
:100A40007A0080917A00816080937A0080917A00A8
:100A5000806880937A001092C10082E056DE60E2E6
:100A600070E083E492E0EADE412C512C32014394A1
:100A700040E0A42E40E0B42E51E05093BF028FB767
:100A8000F89440914F025091500260915102709140
:100A900052028FBF8091AF029091B002A091B1023B
:100AA000B091B202481B590B6A0B7B0B8091BB02C1
:100AB0009091BC02B0E0A0E084179507A607B707A5
:100AC00008F011C110E08091B902181758F4E091B4
:100AD000B502F091B602E10FF11D62E0808142DDC6
:100AE0001F5FF1CF312C8091BA02381608F05CC03C
:100AF000E32CF12CE091B702F091B802EE0DFF1D4E
:100B000061E080812FDDE091B702F091B802EE0D37
:100B1000FF1D60E08081F6DCD301C201032C04C01C
:100B2000880F991FAA1FBB1F0A94D2F74C016C01B2
:100B3000C094D094212C8091B902281600F5022D82
:100B400010E0E091B502F091B602E00FF11F808154
:100B5000AFDC0C5F1F4F000F111FF801ED5AFD4F66
:100B6000892B41F4808191818829992991838083FF
:100B70002394E1CF808191818C219D21F7CFE09159
:100B8000B702F091B802EE0DFF1D61E08081BADC82
:100B90008091B7029091B802E80EF91E60E0F7016B
:100BA0008081E0DC33949FCF03E512E0F801878D6C
:100BB00090A1892B31F4148E8FEF9FEF968F858F44
:100BC00011A2369692E0EF38F90789F7D12C80917F
:100BD000B902D81608F052C0C12CED2CF12CEE0C45
:100BE000FF1CF701E55AFD4F7F012091BA02C216A2
:100BF00008F042C0F701608171810C2C02C076952B
:100C000067950A94E2F7D29E900111242C0D311DB4
:100C1000E3E5F2E080E0458D568D2417350709F4B1
:100C2000D2C08F5F36968A30B1F760FF23C0E3E50C
:100C3000F2E090E080E0448D411117C0E091B302F2
:100C4000F091B402E20FF31F408156E0589FF0018B
:100C5000599FF00D1124ED5AFD4F448F368F258F8B
:100C600010A2178E61E023DB05C0019636968A300C
:100C7000910509F7C394B9CFD394A9CF80E0F801C7
:100C800091A19111892F0A5F1F4FF2E00F381F07C2
:100C9000B1F79FB7F89440914F0250915002609184
:100CA0005102709152029FBF4093AF025093B00225
:100CB0006093B1027093B2028823A9F0809174020C
:100CC000882389F08091720290917302019759F400
:100CD00010916F0211110AC0A114B10409F4CCCE15
:100CE0000E940000C9CE1092BF02F6CF133271F4F9
:100CF00050E040E06DE372E083E492E0C6DD81E025
:100D0000FFDC8BE39FE10197F1F7E6CF1A32A1F503
:100D1000E091D502E33038F5E150F0E0EE53FD4FBD
:100D200084898068EDDC20914D0230914E028091E3
:100D300047029091480228173907C9F48091490267
:100D400090914A026091430270914402009709F425
:100D50003CC06115710549F4232B09F443C0FC0123
:100D6000808190E03DC0E2E0D8CF08D339C049E0AF
:100D700050E06FE272E03AC041E0612F82EC92E015
:100D800072DC19831A8200914702109148020F5FAA
:100D90001F4FB80183E492E051DD882309F49CCF12
:100DA0002091430230914402809147029091480281
:100DB000BE016F5F7F4F820F931FE9D210934802ED
:100DC0000093470289CF61704ECF6115710551F0D4
:100DD000232B41F0FB01808190E091958195910951
:100DE000892B29F647E050E061E372E082EC92E063
:100DF000CCDA50E040E06DE372E083E492E045DD60
:100E00006BCF1092C5021092C40287E292E09093D9
:100E1000C3028093C2028DE08093C6028FEF80935D
:100E2000C7028CE08093C8028BE08093C9028AE0FD
:100E30008093CA0289E08093CB0288E08093CC0241
:100E40001092CD021092CE021092CF021092D002D8
:100E50001092D10281E059DC109255021092590291
:100E60001092580210925A028DE192E0909354022F
:100E700080935302EFE6F2E010821482138215820F
:100E8000369682E0EB3AF807B9F783E092E0909368
:100E9000B6028093B50280E092E09093B80280930E
:100EA000B70284E08093B90283E08093BA0287E0BE
:100EB00092E09093B4028093B3028AE090E0909322
:100EC000BC028093BB0284EF91E09093BE028093BA
:100ED000BD021092C1021092C0021092AF02109295
:100EE000B0021092B1021092B2021092BF021092A0
:100EF0004A021092490210924C0210924B02109238
:100F00004E0210924D0244E050E069E372E089E441
:100F100092E0BBDC1092440210924302109246020F
:100F200010924502109248021092470250E040E0B1
:100F30006DE372E083E492E0A8CC8091430290914B
:100F40004402009709F0ACD08091490290914A0286
:100F5000009709F0A5C00895EE0FFF1F881F8BBFF3
:100F60000790F691E02D19940F931F93CF93DF9381
:100F70008230910510F482E090E0E091DC02F09183
:100F8000DD0230E020E0B0E0A0E0309799F42115D8
:100F9000310509F44AC0281B390B24303105D8F536
:100FA0008A819B816115710589F1FB01938382839D
:100FB000FE0111C0408151810281138148175907F8
:100FC000E0F04817590799F4109761F012960C93C6
:100FD000129713961C933296CF01DF91CF911F91F8
:100FE0000F9108950093DC021093DD02F4CF2115D8
:100FF000310551F04217530738F0A901DB019A017E
:10100000BD01DF01F801C1CFEF01F9CF9093DD02FF
:101010008093DC02CDCFFE01E20FF31F8193919309
:101020002250310939832883D7CF2091DA023091B9
:10103000DB02232B41F420911502309116023093EC
:10104000DB022093DA022091130230911402211561
:10105000310541F42DB73EB7409117025091180267
:10106000241B350BE091DA02F091DB02E217F30763
:10107000A0F42E1B3F0B2817390778F0AC014E5F08
:101080005F4F2417350748F04E0F5F1F5093DB0268
:101090004093DA02819391939FCFF0E0E0E09CCF00
:1010A000CF93DF930097E9F0FC013297138212820D
:1010B000A091DC02B091DD02ED0130E020E010975C
:1010C000A1F420813181820F931F2091DA023091A7
:1010D000DB022817390709F061C0F093DB02E093C7
:1010E000DA02DF91CF910895EA01CE17DF07E8F524
:1010F0004A815B819E0141155105B1F7E901FB83EE
:10110000EA8349915991C40FD51FEC17FD0761F48B
:10111000808191810296840F951FE90199838883CC
:10112000828193819B838A83F0E0E0E012968D9127
:101130009C9113970097B9F52D913C911197CD0192
:101140000296820F931F2091DA023091DB0228175A
:10115000390739F6309751F51092DD021092DC0212
:10116000B093DB02A093DA02BCCFD383C283408169
:101170005181840F951FC817D90761F44E5F5F4FE7
:1011800088819981480F591F518340838A819B81AF
:10119000938382832115310509F0B0CFF093DD02EE
:1011A000E093DC029ECFFD01DC01C0CF13821282EE
:1011B000D7CF4F925F926F927F928F929F92AF9212
:1011C000BF92CF92DF92EF92FF920F931F93CF9334
:1011D000DF938C01009791F4CB01DF91CF911F91A8
:1011E0000F91FF90EF90DF90CF90BF90AF909F90C6
:1011F0008F907F906F905F904F90B6CEFC01E60F7E
:10120000F71F9C0122503109E217F30708F4AAC026
:10121000D901CD91DC911197C617D70718F1C530C8
:10122000D10570F0CE0104978617970748F0C61BCA
:10123000D70B2297C193D1936D937C93CF0130DF6D
:10124000C801DF91CF911F910F91FF90EF90DF9038
:10125000CF90BF90AF909F908F907F906F905F9056
:101260004F9008955B01AC1ABD0A4C018C0E9D1E77
:10127000A091DC02B091DD02512C412CF12CE12C2B
:10128000109731F58091DA029091DB02881599056B
:1012900009F05CC04616570608F058C0809113024A
:1012A00090911402009741F48DB79EB740911702B8
:1012B00050911802841B950BE817F90708F052C0EB
:1012C000F093DB02E093DA02F90171836083B8CF17
:1012D0008D919C91119712966C90129713967C9019
:1012E0001397A815B90559F56C0142E0C40ED11C3D
:1012F000CA14DB0420F1AC014A195B09DA01129629
:10130000159780F06282738251834083D9016D9377
:101310007C93E114F10471F0D7011396FC93EE93E2
:1013200012978ECF22968C0F9D1FF9019183808397
:10133000F301EFCFF093DD02E093DC0281CF48169A
:10134000590608F42C017D01D3019ACFCB010CDEA4
:101350007C01009739F0AE01B80107D0C801A0DECA
:1013600087016ECF10E000E06BCFFB01DC0102C013
:1013700001900D9241505040D8F70895FB01DC01D7
:101380008D91019080190110D9F3990B0895FB01FB
:10139000DC0101900D920020E1F7089511E0C3E017
:1013A000D1E000E005C0802FFE01D6DD2196011DB1
:0E13B000C430D10780E00807B1F7F894FFCFF2
:1013BE0024252616181A1C3132333435363738396F
:1013CE002A30230000DE02800000000000EE02AF93
:1013DE00028002000000001904C501F202F1026948
:0E13EE006E636F7272656374003132333400C7
:00000001FF
