:10000000F5C0000021C100001FC100001DC100009B
:100010001BC1000019C1000017C1000015C100007C
:1000200013C1000011C100000FC100000DC100008C
:100030000BC1000009C1000007C1000005C100009C
:1000400003C1000001C10000FFC00000FDC00000AE
:10005000FBC00000F9C00000F7C0000057C300005B
:10006000F3C00000F1C00000EFC00000EDC00000D0
:10007000EBC00000E9C00000E7C00000E5C00000E0
:10008000E3C00000E1C00000DFC00000DDC00000F0
:10009000DBC00000D9C00000D7C00000D5C0000000
:1000A000D3C00000D1C00000CFC00000CDC0000010
:1000B000CBC00000C9C00000C7C00000C5C0000020
:1000C000C3C00000C1C00000BFC00000BDC0000030
:1000D000BBC00000B9C00000B7C00000B5C0000040
:1000E000B3C0000000000A0B02090C0D0E08070344
:1000F00004010000000000000000000000000000FB
:1001000000000000000000000000000000000000EF
:1001100012111000000000000000000000000000AC
:100120000000000000000000000000002200250088
:1001300028002B002E0031003400020100000501D0
:1001400008010B0100002100240027002A002D00D7
:100150003000330001010000040107010A01050518
:100160000505070508080808020202020A0A08082D
:10017000040404040101010101010101030303035B
:1001800003030303040707070C0C0C0C0C0C0C0CEA
:100190000202020206060606060606060B0B0B0BFB
:1001A0000B0B0B0B01021020200808102040102020
:1001B000408002010201080402010102040810202B
:1001C0004080804020100804020180040201804029
:1001D0002010080402010804020101020408102092
:1001E00040800102040810204080B10411241FBE89
:1001F000CFEFD1E2DEBFCDBF00E00CBF12E0A0E048
:10020000B2E0E0EBF9E000E00BBF02C007900D9216
:10021000AC32B107D9F722E0ACE2B2E001C01D92E6
:10022000AF34B207E1F710E0C6EFD0E000E005C060
:1002300021970109802FFE01B1D3C53FD10780E08E
:100240000807B1F7ADD2B2C3DBCE90E0FC01EC55AC
:10025000FE4F2491825A9E4FFC018491882399F08D
:1002600090E0880F991FFC01EC5BFE4FA591B491C3
:10027000FC01E65DFE4F859194918FB7F894EC9167
:10028000E22BEC938FBF0895AF92BF92CF92DF9293
:10029000EF92FF920F931F93CF93DF936C017B013B
:1002A0008B01040F151FEB015E01AE18BF08C017CC
:1002B000D10759F06991D601ED91FC910190F0813F
:1002C000E02DC6011995892B79F7C501DF91CF91F2
:1002D0001F910F91FF90EF90DF90CF90BF90AF9064
:1002E0000895282F30E0F901EC51FF4F9491F90166
:1002F000EC55FE4F4491225A3E4FF901249122239E
:1003000009F434C0992309F191509231F0F4E92FA6
:10031000F0E08827E257FE4F8F4F40C3BF01C30173
:10032000A001B701BB01A501C601CC01D001D601D6
:10033000DA01DE01E401E801A501EC01F201F601B8
:10034000809180008F7780938000E22FF0E0EE0FA5
:10035000FF1FE65DFE4FA591B4918FB7F894EC9125
:10036000611148C040954E234C938FBF08958091F2
:1003700080008F7DE8CF80918000877FE4CF84B5B7
:100380008F7784BDE2CF84B58F7DFBCF8091B000A5
:100390008F778093B000D9CF8091B0008F7DF9CF57
:1003A000809190008F7780939000CFCF80919000C4
:1003B0008F7DF9CF80919000877FF5CF8091A0004D
:1003C0008F778093A000C1CF8091A0008F7DF9CF5F
:1003D0008091A000877FF5CF809120018F77809357
:1003E0002001B3CF809120018F7DF9CF8091200132
:1003F000877FF5CF4E2BB8CF3FB7F894809131026D
:1004000090913202A0913302B091340226B5A89B9C
:1004100005C02F3F19F00196A11DB11D3FBFBA2F96
:10042000A92F982F8827BC01CD01620F711D811D56
:10043000911D42E0660F771F881F991F4A95D1F7DB
:1004400008958F929F92AF92BF92CF92DF92EF92D8
:10045000FF924B015C01D0DF6B017C01CDDF6C1999
:100460007D098E099F09683E734081059105B0F3AF
:1004700021E0821A9108A108B10888EEC80E83E035
:10048000D81EE11CF11C81149104A104B10431F7C0
:10049000FF90EF90DF90CF90BF90AF909F908F90A4
:1004A0000895089590E080E00895FC0101900020F7
:1004B000E9F73197AF01481B590BBC0187E392E084
:1004C000E3CECF93DF93EC0160E08E810ADF61E041
:1004D0008E8107DF60E08E8104DF8BE891E0019779
:1004E000F1F7DF91CF910895CF92DF92EF92FF92D3
:1004F0000F931F93CF93DF936C017C0187E0E80E8D
:10050000F11CD0E0C0E0062F10E0B8010C2E02C0B4
:10051000759567950A94E2F76170F70181917F0103
:10052000E0DE2196C430D10581F7C601DF91CF917D
:100530001F910F91FF90EF90DF90CF90C2CFCF929D
:10054000DF92EF92FF920F931F93CF93DF93EC0113
:10055000F62E642F8C81C5DE8D818F3F11F060E017
:10056000C0DE0F2D10E08F8584FF23C06E0187E071
:10057000C80ED11CF12CE12CB8010E2C02C07595CF
:1005800067950A94E2F76170F60181916F01A9DE27
:10059000FFEFEF1AFF0A88E0E816F10469F7CE01D1
:1005A000DF91CF911F910F91FF90EF90DF90CF904F
:1005B00088CFB80184E0759567958A95E1F7CE01FB
:1005C00093DF6F2DCE01DF91CF911F910F91FF909F
:1005D000EF90DF90CF9088CF40E0682F87E392E0E4
:1005E000AECFCF93DF93823029F49091460298608A
:1005F0009093460280934A0210924B0280E48093CB
:100600004C0280E180934D0280E580934E02809100
:100610003B021BDE80913C028F3F09F016DE809189
:100620003D0213DEC7E3D2E09E01275332408091A2
:10063000460284FD09C084E090E02196281739071E
:1006400034F48E8102DEF0CF88E090E0F6CF8BE3C9
:100650009DE00197F1F760E080913B0242DE60E0AF
:1006600080913D023EDE80913C028F3F11F060E0C0
:1006700038DE8091460284FD31C063E087E392E07A
:1006800033DFCBE4D6E4CE010197F1F763E087E3F3
:1006900092E02ADF2197F1F763E087E392E024DF1D
:1006A00083E592E00197F1F762E087E392E01CDFD7
:1006B00080914602806290DF84E0809347028CE064
:1006C0008BDF81E089DF8BE39FE10197F1F782E027
:1006D0008093480286E0DF91CF917ECF80627CDFFD
:1006E0008BE496E40197F1F780914602806274DF13
:1006F00083E592E00197F1F78091460280626CDF1A
:10070000D7CF41E01CDF81E090E008951F920F9267
:100710000FB60F9211242F933F938F939F93AF9314
:10072000BF9380912D0290912E02A0912F02B09143
:10073000300230912C0223E0230F2D3758F501961B
:10074000A11DB11D20932C0280932D0290932E02A7
:10075000A0932F02B0933002809131029091320227
:10076000A0913302B09134020196A11DB11D809376
:10077000310290933202A0933302B0933402BF91BE
:10078000AF919F918F913F912F910F900FBE0F903E
:100790001F90189526E8230F0296A11DB11DD2CFF8
:1007A000789484B5826084BD84B5816084BD85B54C
:1007B000826085BD85B5816085BD80916E00816058
:1007C00080936E00109281008091810082608093FE
:1007D0008100809181008160809381008091800000
:1007E0008160809380008091B10084608093B1002B
:1007F0008091B00081608093B00080919100826010
:10080000809391008091910081608093910080910C
:1008100090008160809390008091A100826080931D
:10082000A1008091A10081608093A1008091A0002F
:1008300081608093A00080912101826080932101DA
:10084000809121018160809321018091200181604C
:100850008093200180917A00846080937A00809157
:100860007A00826080937A0080917A008160809320
:100870007A0080917A00806880937A001092C1009B
:1008800082E0AFDE8CE092E010DEC0E0D0E01092BB
:1008900036021092350280913502909136020B9704
:1008A0001CF58CE199DEE0914A02E330D8F4E15086
:1008B000F0E0E95CFD4F848980688EDE8CE18CDE9F
:1008C0008FE192E0F2DD64EF71E080E090E0B9DD6D
:1008D0008091350290913602019690933602809372
:1008E0003502D9CFE2E0E4CF68EC70E080E090E040
:1008F000A8DD109236021092350280913502909157
:1009000036020D971CF588E167DEE0914A02E3307C
:10091000D8F4E150F0E0E95CFD4F848980685CDE4A
:1009200088E15ADE8FE192E0C0DD64EF71E080E0A3
:1009300090E087DD80913502909136020196909388
:10094000360280933502D9CFE2E0E4CF68EC70E064
:1009500080E090E076DD209709F499CF0E940000B6
:1009600096CFE7E3F2E01382128284E092E0918373
:1009700080838DE084838FEF85838CE086838BE09A
:1009800087838AE0808789E0818788E08287138671
:10099000148615861686178681E023CEEE0FFF1F7C
:1009A000881F8BBF0790F691E02D1994F894FFCF24
:1009B0000000000081034401520251024D6F687330
:1009C000656E204D6F68616D6D616469616E004890
:0C09D000656C6C6F20776F726C64000027
:00000001FF
