:100000000C945D000C9485000C9485000C94850084
:100010000C9485000C9485000C9485000C9485004C
:100020000C9485000C9485000C9485000C9485003C
:100030000C9485000C9485000C9485000C9485002C
:100040000C9474020C9485000C9485000C9485002B
:100050000C9485000C9485000C9485000C9485000C
:100060000C9485000C94850000000008000201003B
:100070000003040700000000000000000000000072
:10008000250028002B0000000000240027002A0083
:10009000040404040404040402020202020203032E
:1000A0000303030301020408102040800102040836
:1000B0001020010204081020A70311241FBECFEF57
:1000C000D8E0DEBFCDBF11E0A0E0B1E0E4E2FBE0AC
:1000D00002C005900D92A431B107D9F721E0A4E147
:1000E000B1E001C01D92A533B207E1F710E0CDE504
:1000F000D0E004C02197FE010E948A05CC35D107CB
:10010000C9F70E94BE020C9490050C94000090E088
:10011000FC01EC55FF4F249180579F4FFC018491C7
:10012000882399F090E0880F991FFC01EA57FF4F50
:10013000A591B491FC01E458FF4F859194918FB73C
:10014000F894EC91E22BEC938FBF0895AF92BF929D
:10015000CF92DF92EF92FF920F931F93CF93DF9393
:100160006C017B018B01040F151FEB015E01AE18C2
:10017000BF08C017D10759F06991D601ED91FC91E4
:100180000190F081E02DC6010995892B79F7C50111
:10019000DF91CF911F910F91FF90EF90DF90CF9063
:1001A000BF90AF90089590E0FC01E859FF4F249173
:1001B000FC01EC55FF4F3491FC01E057FF4FE491F7
:1001C000EE23C9F0222339F0233001F1A8F42130C5
:1001D00019F1223029F1F0E0EE0FFF1FE458FF4F34
:1001E000A591B4918FB7F894EC91611126C0309528
:1001F0003E233C938FBF08952730A9F02830C9F0E3
:10020000243049F7809180008F7D03C08091800069
:100210008F7780938000DFCF84B58F7784BDDBCF6D
:1002200084B58F7DFBCF8091B0008F778093B00035
:10023000D2CF8091B0008F7DF9CF3E2BDACF0895D9
:1002400090E080E00895FC0101900020E9F73197EB
:10025000AF01481B590BBC018DE191E00C94A60045
:10026000CF93DF93EC0160E08E810E94D30061E0C8
:100270008E810E94D30060E08E810E94D3008BE8C3
:1002800091E00197F1F7DF91CF910895CF92DF923E
:10029000EF92FF920F931F93CF93DF936C017C013A
:1002A00087E0E80EF11CD0E0C0E0062F10E0B801B6
:1002B0000C2E02C0759567950A94E2F76170F701FC
:1002C00081917F010E94D3002196C430D10579F736
:1002D000C601DF91CF911F910F91FF90EF90DF90BA
:1002E000CF900C943001CF92DF92EF92FF920F9358
:1002F0001F93CF93DF93EC01F62E642F8C810E9425
:10030000D3008D818F3F19F060E00E94D3000F2D44
:1003100010E08F8584FF25C06E0187E0C80ED11CD8
:10032000F12CE12CB8010E2C02C0759567950A944A
:10033000E2F76170F60181916F010E94D300FFEF37
:10034000EF1AFF0A88E0E816F10461F7CE01DF91A9
:10035000CF911F910F91FF90EF90DF90CF900C9471
:100360003001B80184E0759567958A95E1F7CE0173
:100370000E9446016F2DCE01DF91CF911F910F9109
:10038000FF90EF90DF90CF900C94460140E0682FF3
:100390008DE191E00C947301CF93DF93823029F4C7
:1003A00090912C01986090932C01809330011092D1
:1003B000310180E48093320180E18093330180E554
:1003C00080933401809121010E9487008091220155
:1003D0008F3F11F00E948700809123010E948700C7
:1003E000CDE1D1E09E012D51314080912C0184FD61
:1003F0000AC084E090E02196281739073CF48E81EA
:100400000E948700EFCF88E090E0F5CF8BE39DE07E
:100410000197F1F760E0809121010E94D30060E034
:10042000809123010E94D300809122018F3F19F017
:1004300060E00E94D30080912C0184FD39C063E00C
:100440008DE191E00E944601CBE4D6E4CE01019714
:10045000F1F763E08DE191E00E9446012197F1F709
:1004600063E08DE191E00E94460183E592E001970F
:10047000F1F762E08DE191E00E94460180912C014C
:1004800080620E94C60184E080932D018CE00E946E
:10049000C60181E00E94C6018BE39FE10197F1F75D
:1004A00082E080932E0186E0DF91CF910C94C6010B
:1004B00080620E94C6018BE496E40197F1F7809177
:1004C0002C0180620E94C60183E592E00197F1F75A
:1004D00080912C0180620E94C601D0CF41E00E9431
:1004E000730181E090E008951F920F920FB60F9272
:1004F00011242F933F938F939F93AF93BF9380913A
:10050000190190911A01A0911B01B0911C01309129
:10051000180123E0230F2D3758F50196A11DB11DB9
:10052000209318018093190190931A01A0931B0145
:10053000B0931C018091140190911501A0911601B6
:10054000B09117010196A11DB11D809314019093E4
:100550001501A0931601B0931701BF91AF919F9120
:100560008F913F912F910F900FBE0F901F90189574
:1005700026E8230F0296A11DB11DD2CFCF93DF93A2
:10058000CDB7DEB7A1970FB6F894DEBF0FBECDBFD3
:10059000789484B5826084BD84B5816084BD85B55E
:1005A000826085BD85B5816085BD80916E0081606A
:1005B00080936E0010928100809181008260809310
:1005C0008100809181008160809381008091800012
:1005D0008160809380008091B10084608093B1003D
:1005E0008091B00081608093B00080917A00846037
:1005F00080937A0080917A00826080937A00809163
:100600007A00816080937A0080917A00806880937C
:100610007A001092C10082E00E94CC018CE091E04F
:100620000E942301E0913001E23008F076C0E150F1
:10063000F0E0E35EFE4F848980680E94C60180E49A
:10064000782E9AE0892E912CA12CB12C00E010E09C
:1006500070927C0080917A00806480937A0080910F
:100660007A0086FDFCCF60917800E0907900FE2C46
:10067000E62EE0913001E23008F051C0E150F0E0A8
:10068000E35EFE4F848980680E94C601B701FF0CBB
:10069000880B990B0E946F0420E030EC4FE754E484
:1006A0000E94C50320E030E048EC52E40E94FB04C5
:1006B0000E9437046B01770FEE08FF08F7FE31C088
:1006C00041E06DE28DE191E00E9473012227332722
:1006D000A9012C193D094E095F0919A2CE01819685
:1006E0007C01CA01B901A50194010E946805605D01
:1006F000F70162937F01211531054105510589F705
:10070000E114F10419F0C7010E942301011511053C
:1007100009F49ECF0E9400009BCFE1E089CFE1E089
:10072000AECFA701960119A2CE0181967C01CA0124
:10073000B901A50194010E946805605DF70162930B
:100740007F01211531054105510589F7D9CFEDE12B
:10075000F1E01382128284E091E09183808387E04C
:1007600084838FEF858386E0868385E0878384E0BA
:10077000808783E0818782E08287138614861586CE
:100780001686178681E00C94CC010E94D9030C9444
:10079000C1040E94BA0458F00E94B30440F029F446
:1007A0005F3F29F00C94AA0451110C94F5040C94A9
:1007B000B0040E94D20468F39923B1F3552391F356
:1007C000951B550BBB27AA2762177307840738F0C0
:1007D0009F5F5F4F220F331F441FAA1FA9F335D01D
:1007E0000E2E3AF0E0E832D091505040E695001CD1
:1007F000CAF72BD0FE2F29D0660F771F881FBB1F8B
:10080000261737074807AB07B0E809F0BB0B802D68
:10081000BF01FF2793585F4F3AF09E3F510578F094
:100820000C94AA040C94F5045F3FE4F3983ED4F3CF
:10083000869577956795B795F7959F5FC9F7880F68
:10084000911D9695879597F90895E1E0660F771FBA
:10085000881FBB1F621773078407BA0720F0621B4B
:10086000730B840BBA0BEE1F88F7E09508950E9476
:100870003E046894B1110C94F50408950E94DA04C2
:1008800088F09F5798F0B92F9927B751B0F0E1F051
:10089000660F771F881F991F1AF0BA95C9F714C001
:1008A000B13091F00E94F404B1E008950C94F40486
:1008B000672F782F8827B85F39F0B93FCCF386953A
:1008C00077956795B395D9F73EF490958095709597
:1008D00061957F4F8F4F9F4F0895E89409C097FB14
:1008E0003EF490958095709561957F4F8F4F9F4F07
:1008F0009923A9F0F92F96E9BB279395F69587954B
:1009000077956795B795F111F8CFFAF4BB0F11F40D
:1009100060FF1BC06F5F7F4F8F4F9F4F16C08823B4
:1009200011F096E911C0772321F09EE8872F762FEA
:1009300005C0662371F096E8862F70E060E02AF02B
:100940009A95660F771F881FDAF7880F9695879517
:1009500097F9089597F99F6780E870E060E008953F
:100960009FEF80EC089500240A94161617061806C7
:100970000906089500240A941216130614060506A3
:100980000895092E0394000C11F4882352F0BB0F34
:1009900040F4BF2B11F460FF04C06F5F7F4F8F4F97
:1009A0009F4F089557FD9058440F551F59F05F3FD2
:1009B00071F04795880F97FB991F61F09F3F79F081
:1009C00087950895121613061406551FF2CF469503
:1009D000F1DF08C0161617061806991FF1CF869585
:1009E0007105610508940895E894BB276627772769
:1009F000CB0197F908950E940E050C94C1040E9442
:100A0000B30438F00E94BA0420F0952311F00C943E
:100A1000AA040C94B00411240C94F5040E94D2048E
:100A200070F3959FC1F3950F50E0551F629FF00141
:100A3000729FBB27F00DB11D639FAA27F00DB11D5A
:100A4000AA1F649F6627B00DA11D661F829F2227E3
:100A5000B00DA11D621F739FB00DA11D621F839F6A
:100A6000A00D611D221F749F3327A00D611D231F40
:100A7000849F600D211D822F762F6A2F11249F578E
:100A800050409AF0F1F088234AF0EE0FFF1FBB1F91
:100A9000661F771F881F91505040A9F79E3F510550
:100AA00080F00C94AA040C94F5045F3FE4F3983EA4
:100AB000D4F3869577956795B795F795E7959F5FFA
:100AC000C1F7FE2B880F911D9695879597F908958C
:100AD000A1E21A2EAA1BBB1BFD010DC0AA1FBB1F42
:100AE000EE1FFF1FA217B307E407F50720F0A21BB4
:100AF000B30BE40BF50B661F771F881F991F1A9421
:100B000069F760957095809590959B01AC01BD014A
:100B1000CF010895EE0FFF1F0590F491E02D099489
:040B2000F894FFCF77
:100B2400000000006E02A60020011F013938333195
:040B34003530320026
:00000001FF
